:100000000C9407090C9426090C9426090C942609D3
:100010000C9426090C9426090C9426090C942609A4
:100020000C9426090C9426090C9426090C94260994
:100030000C9426090C94DB2F0C9426090C942609A9
:100040000C9426090C9426090C9426090C94260974
:100050000C94372E0C9426090C9426090C9426092E
:100060000C9426090C9426090C9426090C94260954
:100070000C94472E0C9426090C9426090C942609FE
:100080000C9426090C9426090C942609B14FCC4FE8
:10009000CC4FCC4FCC4FCC4FCC4FCC4FCC4FCC4F88
:1000A000CC4FCC4FCC4FCC4FCC4FCC4FCC4FCC4F78
:1000B000CC4FCC4FCC4FCC4FCC4FCC4FCC4FCC4F68
:1000C000CC4FCC4FCC4FCC4FCC4FCC4FCC4FCC4F58
:1000D000CC4FCC4FCC4FCC4FCC4FCC4FCC4FCC4F48
:1000E000CC4FCC4FCC4FCC4FCC4FCC4FCC4FCC4F38
:1000F000CC4FCC4FCC4FCC4FCC4FCC4FCC4FCC4F28
:10010000CC4FCC4FCC4FCC4FCC4FCC4FCC4FCC4F17
:10011000CC4FCC4FCC4FCC4FCC4FCC4FCC4FCC4F07
:10012000CC4FB74FBA4FC14FC44FC74FCC4FC94F39
:10013000CC4FCB4FCC4FBD4FCC4FBF4FCC4FB44F1C
:10014000D07CB67D547D127DD67DCD7CD27DCD7D9B
:100150001C2241C141221C0000E71FEB0B070303D7
:1001600080473F2B6B07030320271F2BCB0703037D
:1001700000477FEB0B070303679F6B8B07030300AD
:10018000809C7FEC2C1C0C0C9CFC6FAC1C0C0C00A1
:100190001C2271C97FFF7C0000E11FE1000000000C
:1001A0001C2261D1FFFE7C0000E11FE30000000083
:1001B000C4A4F4AFB7E4A860C8A4F7AF5474503037
:1001C000031BC4BA7A281C0C0000000000000000C9
:1001D00088C4241F2BC89000C0AC241F2B68440087
:1001E000C048641FEB880000C844241F2B28660009
:1001F00000000000000000000000000000000000FF
:1002000000000000000000000000000000000000EE
:1002100000000000000000000000000000000000DE
:1002200000000000000000000000000000000000CE
:1002300000000000000000000000000000000000BE
:1002400000000000000000000000000000000000AE
:1002500080C0E0F0F800000080C0E0B0D8ACD6FF6D
:10026000FEBAD6EED6BAFE004078FCFEFC7840001E
:10027000C0C07E06C6C67E00C0C0C07E064C380028
:10028000F8888F81818F88F8FC86FD8585FD86FC46
:1002900010F8ACFEACF81000F884F29191F284F8FA
:1002A000C0C0FFC1C1FFC0C0F8F0FFFEF8FFE1F819
:1002B0000000180018000000FC5AFD830FF226F819
:1002C000C728977D7D9728C70020977D7D972000C0
:1002D0004080C080C04080C00000000000000000DE
:1002E00090D0FE3960C0C0603800383838381010FF
:1002F0000088DC7E3F19100070F8CCFECCF870004E
:100300000000BCBFBC0000000000000000000000B6
:10031000F07AEC78EC7AF000B8FC36FE36FCB800E7
:1003200000040AFAAAA4000080402050280848309F
:1003300040205028483040800205040A1408141058
:1003400008081418140A050200000000000000004C
:100350000000000000000000FFFFFFFFFFFFFFFFA5
:10036000A28AA82AA28AA82AFFFFFFFFFFFFFFFF99
:10037000191513111315191191A9C58383C5A991D5
:1003800022111122224444226633336666CCCC66A5
:10039000EEEEEE00EEEEEE00E0FEF880E0FEF8801D
:1003A000077F1F01077F1F01FC9292AA9292FC0017
:1003B000383838FE7C38100010387CFE3838380069
:1003C0001018FCFEFC18100010307EFE7E3010006D
:1003D0003E41414F49413E0081F6EE9EC0F6F67F18
:1003E0007E8185D3DB8D817E7E81BD858585C17EC5
:1003F000003E7F5D633E00007F41C14141417FC1BE
:10040000417FC141FFC17F7F0000FF00000000FF6E
:100410000000FF00FFFF00003E1C7CDC7C1C3E0057
:1004200082FEFEFEAA381000F8707C767C70F80020
:100430001038AAFEFEFE82004242DBDBFFFFE7C36C
:1004400066FFC35A5AC3FF66183CA5FFE7FF663C28
:100450000000182424180000003C664242663C005C
:1004600018665285A14A661866998962469199660E
:10047000669181024081896600665204204A6600C6
:1004800000245204204A24000020120420480400C2
:100490001E7C78783830301000300030303000006A
:1004A0001C3E7EFC7E3E1C001E73337F33731E0099
:1004B000446C7E3F7E6C440070F8FCFA72020400CB
:1004C000180C0EF87C0E1B095474567D567454009B
:1004D00000387C423E1C000000047C3E000000000E
:1004E0004462725E4C00000024424A7E34000000E8
:1004F00030287C7E200000004E4E4A7A32000000F8
:10050000307C4E4A300000000666160E06000000E1
:1005100020744A5A36000000085C321E0C000000AD
:10052000C3810000000081C30066420000426600F3
:10053000382C2426223391D1D19332E24341E33E39
:100540001C34246444CC898B8BC94C47C282C77C41
:10055000FE3F783E3E783FFE88DC76FFFF76DC8803
:10056000B68AA82AB68AA82AFC9292BA9292FC006D
:10057000FFA5FFBDBDFFA5FF0000000000000000BB
:10058000E010E8747AFD7D25257DFD7A74E810E0A1
:1005900000006070687CBC4040BC7C6870600000FB
:1005A0001C86427A0FFB0FFF0FFB0F7A42861C005E
:1005B000000000F0B8BCFCFCFCFCFCBCB8F0000087
:1005C0000000E058AC56EA75EB151FFFFB9F1E3C80
:1005D000000000000000000000000000000000001B
:1005E000000000000000000000000000000000000B
:1005F00000000000000000000000000000000000FB
:100600000708172E5EBFBEA4A4BEBF5E2E17080744
:100610000000060E163E3D02023D3E160E0600008C
:100620000301003C07013E073E01073C00010300B7
:10063000000000070F1F1D1B1B1B1D1F0F070000C5
:100640000000232D3A2F3B08090E1F3528312100C9
:10065000000000000000000000000000000000009A
:10066000000000000000000000000000000000008A
:10067000000000000000000000000000000000007A
:10068000000000000000000000000000000000006A
:10095000000000000000004F000000070007001426
:100960007F147F14242A7F2A126313086462364995
:100970005522500005030000001C224100004122C6
:100980001C0014083E081408083E080800503000F7
:100990000008080808080060600000201008040231
:1009A0003E5149453E00427F400042615149462147
:1009B00041454B311814127F1027454545393C4AB3
:1009C0004949300171090503364949493606494903
:1009D000251E00363600000056360000081422415D
:1009E00000141414141400412214080201510906C1
:1009F000324979413E7E2121217E7F494949363E57
:100A0000414141227F4141221C7F494949417F099F
:100A10000909013E4149497A7F0808087F00417F62
:100A200041002040413F017F081422417F40404067
:100A3000407F0204027F7F0408107F3E4141413E17
:100A40007F090909063E4151215E7F091929464661
:100A50004949493101017F01013F4040403F1F208A
:100A600040201F3F4038403F63140814630708705C
:100A700008076151494543007F41410015167C1626
:100A8000150041417F000402010204404040404003
:100A9000000102040020545454787F4844443838FC
:100AA00044444420384444487F3854545418087E01
:100AB0000901020C5252523E7F0804047800447D22
:100AC00040002040443D007F1028440000417F400A
:100AD000007C041804787C080404783844444438C2
:100AE0007C14141408081414187C7C0804040848A6
:100AF00054545420043F4440203C4040207C1C205F
:100B000040201C3C4030403C44281028440C5050AD
:100B1000503C4464544C44000836410000007F00BF
:100B20000000413608003E3E1C0800081C2A080848
:100B30000000000000705070000000000F01014034
:100B400040780000102040000000181800000A0A39
:100B50004A2A1E044434140C201078040018084C4F
:100B6000483848487848484828187C08087C0428B1
:100B7000184048487840545454547C180058403821
:100B8000080808080801413D090710087C02010E09
:100B90000243221E42427E424222120A7F02423F0A
:100BA00002423E0A0A7F0A0A084642221E04034203
:100BB0003E02424242427E024F221F024A4A4020E7
:100BC0001C4222122A46023F424A46064840403C06
:100BD00008464A321E0A4A3E09080E004E201E04EC
:100BE000453D0504007F08100044241F04044042D2
:100BF000424240422A122A0622127B16220040203C
:100C00001F0078000204783F4444444402424222D8
:100C10001E040204083032027F0232021222520EF7
:100C2000002A2A2A40382422207040281028060A48
:100C30003E4A4A4A047F04140C4042427E404A4ADB
:100C40004A4A7E040545251C0F40201F007C007E7B
:100C500040307E402010087E4242427E0E024222F8
:100C60001E4242402018020401020007050700004E
:100C7000607078706003070F070300400240034074
:100C8000054006400840093F0B3F0C3F0E3E103E1A
:100C9000113E133D143D163C173C183B1A3B1B3AC2
:100CA0001D391E3820382137223624352534263385
:100CB000273229312A302B2F2C2E2D2D2E2C2F2B65
:100CC000302A31293227332634253524362237215C
:100CD0003820381E391D3A1B3B1A3B183C173C166E
:100CE0003D143D133E113E103E0E3F0C3F0B3F099D
:100CF00040084006400540034002400040FE40FDE1
:100D000040FB40FA40F83FF73FF53FF43EF23EF03B
:100D10003EEF3DED3DEC3CEA3CE93BE83BE63AE5A5
:100D200039E338E238E037DF36DE35DC34DB33DA1E
:100D300032D931D730D62FD52ED42DD32CD22BD19A
:100D40002AD029CF27CE26CD25CC24CB22CA21C913
:100D500020C81EC81DC71BC61AC518C517C416C48F
:100D600014C313C311C210C20EC20CC10BC109C1FE
:100D700008C006C005C003C002C000C0FEC0FDC060
:100D8000FBC0FAC0F8C0F7C1F5C1F4C1F2C2F0C2AD
:100D9000EFC2EDC3ECC3EAC4E9C4E8C5E6C5E5C6E5
:100DA000E3C7E2C8E0C8DFC9DECADCCBDBCCDACD02
:100DB000D9CED7CFD6D0D5D1D4D2D3D3D2D4D1D502
:100DC000D0D6CFD7CED9CDDACCDBCBDCCADEC9DFEB
:100DD000C8E0C8E2C7E3C6E5C5E6C5E8C4E9C4EAB9
:100DE000C3ECC3EDC2EFC2F0C2F2C1F4C1F5C1F76A
:100DF000C0F8C0FAC0FBC0FDC0FEC000C002C00306
:100E0000C005C006C008C109C10BC10CC20EC2108A
:100E1000C211C313C314C416C417C518C51AC61B00
:100E2000C71DC81EC820C921CA22CB24CC25CD2667
:100E3000CE27CF29D02AD12BD22CD32DD42ED52FCB
:100E4000D630D731D932DA33DB34DC35DE36DF3732
:100E5000E038E238E339E53AE63BE83BE93CEA3C96
:100E6000EC3DED3DEF3EF03EF23EF43FF53FF73F07
:100E7000F840FA40FB40FD40FE4000010304050637
:100E800008090A0B0C0D0F10111213141516171860
:100E900019191A1B1C1D1D1E1F1F20004002400394
:100EA00040054006400840093F0B3F0C3F0E3E10F6
:100EB0003E113E133D143D163C173C183B1A3B1B9C
:100EC0003A1D391E3820382137223624352534265C
:100ED00033273229312A302B2F2C2E2D2D2E2C2F3B
:100EE0002B302A3129322733263425352436223730
:100EF000213820381E391D3A1B3B1A3B183C173C41
:100F0000163D143D133E113E103E0E3F0C3F0B3F6D
:100F10000940084006400540034002400040FE40B2
:100F2000FD40FB40FA40F83FF73FF53FF43EF23E0C
:100F3000F03EEF3DED3DEC3CEA3CE93BE83BE63A78
:100F4000E539E338E238E037DF36DE35DC34DB33F1
:100F5000DA32D931D730D62FD52ED42DD32CD22B6F
:100F6000D12AD029CF27CE26CD25CC24CB22CA21E9
:100F7000C920C81EC81DC71BC61AC518C517C41668
:100F8000C414C313C311C210C20EC20CC10BC109D9
:100F9000C108C006C005C003C002C000C0FEC0FD3D
:100FA000C0FBC0FAC0F8C0F7C1F5C1F4C1F2C2F08D
:100FB000C2EFC2EDC3ECC3EAC4E9C4E8C5E6C5E5C7
:100FC000C6E3C7E2C8E0C8DFC9DECADCCBDBCCDAE7
:100FD000CDD9CED7CFD6D0D5D1D4D2D3D3D2D4D1E8
:100FE000D5D0D6CFD7CED9CDDACCDBCBDCCADEC9D3
:100FF000DFC8E0C8E2C7E3C6E5C5E6C5E8C4E9C4A2
:10100000EAC3ECC3EDC2EFC2F0C2F2C1F4C1F5C154
:10101000F7C0F8C0FAC0FBC0FDC0FEC000C002C0EF
:1010200003C005C006C008C109C10BC10CC20EC275
:1010300010C211C313C314C416C417C518C51AC6E9
:101040001BC71DC81EC820C921CA22CB24CC25CD50
:1010500026CE27CF29D02AD12BD22CD32DD42ED5B2
:101060002FD630D731D932DA33DB34DC35DE36DF18
:1010700037E038E238E339E53AE63BE83BE93CEA79
:101080003CEC3DED3DEF3EF03EF23EF43FF53FF7E8
:101090003FF840FA40FB40FD40FE40080A02080AC3
:1010A00002080A023C0A0208260208260208260252
:1010B0003C26022A08012A10012A20012A180114BC
:1010C0000A02142602141402141C02141E023A12FC
:1010D00002080A02080A02080A021E0A023C140157
:1010E0000826020826020826021E26023C14015089
:1010F0001803FF00001D02FF0000000000000000B8
:1011000000000000000000000027011D011301FF86
:101110000000000000000000000000000013011D9E
:10112000012701FF00000000000000000000000097
:10113000009F0100019F02FF00000000000000006E
:10114000000000000027014F019F01FF0000000088
:101150000000000000000000003F014F011F0127B8
:10116000010F011301FF000000000000001601172D
:1011700001FF00000000000000000000000000006F
:10118000001301150117011301FF0000000000000A
:10119000000000000077019F0127013B014F01770C
:1011A00001FF000000000000004F014B0147014318
:1011B000013F013B01FF000000000000001F01177C
:1011C00005FF00000000000000000000000000001B
:1011D0000077017E019F01FF000000000000000079
:1011E000000000000077035E033B0323031F032F6F
:1011F00003FF00000000000000470A470A470A23D7
:101200000AFF0000000000000000000000001124A0
:101210001FBECFEFD0E4DEBFCDBF1BE1A0E0B1E049
:10122000ECE3FBE101E00BBF02C007900D92A43993
:10123000B107D9F72CE2A4E9BBE101C01D92AD32A0
:10124000B207E1F70E9477300C949C8D0C9400005B
:10125000CF92DF92EF92FF920F931F93CF93DF9382
:101260000F2EF4E2EF2EFDE1FF2EF02DC4E3DDE1C1
:1012700000E010E00F2EF4E6CF2ED12CF02DF70178
:1012800011830083FE013E97802F880F8871808331
:1012900031961082319610823196108231961082EA
:1012A00031961082329610823197108232961082D7
:1012B0003196108231961082F701168615860E94AB
:1012C000628DFE013197B6010E94FB8B80831882EC
:1012D0000C5F1F4FF1E1EF0EF11C61960034110518
:1012E00071F6DF91CF911F910F91FF90EF90DF90FA
:1012F000CF9008952F923F924F925F926F927F927C
:101300008F929F92AF92BF92CF92DF92EF92FF9215
:101310000F931F93CF93DF93CDB7DEB7E3970FB64D
:10132000F894DEBF0FBECDBF84E1EBEDF3E1DE014B
:10133000119601900D928A95E1F788E0EFEEF3E1C6
:10134000DE015F9601900D928A95E1F78AE0E7EF62
:10135000F3E1DE01559601900D928A95E1F70F2E8B
:10136000FEE22F2EFDE13F2EF02D04E21DE180E391
:101370009DE199A788A70F2EF8E2EF2EFDE1FF2E41
:10138000F02D0F2EFCE26F2EFDE17F2EF02D0F2EA3
:10139000FFE2AF2EFDE1BF2EF02D0F2EF9E24F2E12
:1013A000FDE15F2EF02D0F2EFBE2CF2EFDE1DF2EB3
:1013B000F02DA7E2BDE1BDA7ACA7EAE2FDE1FBA7E6
:1013C000EAA70F2EF6E28F2EFDE19F2EF02D1FA231
:1013D000C40145015C01F1018081823081F49501F5
:1013E000D5018C91181614F482508C93D9018C91EC
:1013F000877009F4108221E0D4012C9311C0813050
:1014000079F49501D5018C91883114F48E5F8C9319
:10141000D9018C91877009F4108223E0D4012C93B8
:101420005FA64EA6D2019C919E3138F0D6018C91D8
:10143000811103C0E2E0EC9315C0D6018C9181309C
:1014400079F4F3011082AAA5BBA58C9181508C93ED
:10145000811102C0F6011082E2E0D401EC9367C072
:10146000823079F4D3011C92911103C0F6011082ED
:101470005EC09150AEA5BFA59C9322E0F4012083ED
:1014800056C08430E9F4D70119968D919C911A9732
:1014900001961A969C938E931997EFE1F0E0EC0F6A
:1014A000FD1FE80FF91F2081ECA5FDA520830797FC
:1014B000F1F51A961C921E921997D6011C9237C00C
:1014C0008330C1F4F70181859285019692878187E7
:1014D000E5E1F0E0EC0FFD1FE80FF91F2081ACA55E
:1014E000BDA52C93099719F5F70112861186D6012F
:1014F0001C921DC08A30B1F423E1F7012083AEA510
:10150000BFA51C92EAA5FBA5808181508083EAE0FB
:10151000D401EC9381110BC0D6011C92F4013297D7
:10152000108205C08081811102C0F4011082D301B4
:101530008C91863009F046C0BFA1B11104C061E0B2
:1015400087E70E944B76FBAAEAAAF70180818F5FAA
:101550008083AEA5BFA59C919F5F9C93833110F0C3
:10156000B3E1B083F80160817181072E000C880B14
:10157000990B0E940C8B6EA77FA788AB99ABAAA989
:10158000BBA98C91E1E0F0E0EC0FFD1FE80FF11D2D
:10159000608170E080E090E00E940C8B20E030E001
:1015A00040EC5FE30E94988B9B01AC016EA57FA588
:1015B00088A999A90E940D8A0E94D98AF80171838D
:1015C000608331C08730D1F4F70180818F5F833130
:1015D00010F4808302C023E120838081E1E0F0E009
:1015E000EC0FFD1FE80FF11D2081D8018D919C911A
:1015F0001197820F911D8D939C9315C0F7018081E7
:10160000882311F0815080838081E1E0F0E0EC0FCD
:10161000FD1FE80FF11D2081F80180819181820F6B
:10162000911D91838083F80180819181811528E04B
:1016300092076CF0977899231CF40197986F0196A4
:1016400091838083A8A5B9A58C918F5F8C93BFA14E
:10165000BF5FBFA3E1E12E0E311C0F5E1F4F88A5B7
:1016600099A5419699A788A791E1E90EF11CA1E1FE
:101670006A0E711CB1E18B0E911CE1E14E0E511C02
:10168000F1E1CF0ED11C8CA59DA541969DA78CA7FD
:10169000AAA5BBA55196BBA7AAA7B1E1AB0EB11CE9
:1016A000EFA1E03109F097CEE3960FB6F894DEBFD4
:1016B0000FBECDBFDF91CF911F910F91FF90EF90A3
:1016C000DF90CF90BF90AF909F908F907F906F9062
:1016D0005F904F903F902F9008958F929F92AF927E
:1016E000BF92CF92DF92EF92FF920F931F93CF930F
:1016F000DF9380912901853009F0FCC180912F1D75
:1017000081110DC0E4E2FDE16281655E8381681BA9
:1017100000E020E04CE080E00E94C11FC6C18130A3
:1017200069F4E4E2FDE16281655E8381681B00E0AB
:1017300020E04DE080E00E94C11FB7C1833069F412
:10174000E4E2FDE16281655E8381681B01E020E0E7
:101750004DE080E00E94C11FA8C1823069F4E4E23C
:10176000FDE16281655E8381681B00E020E04EE060
:1017700080E00E94C11F99C1843069F4E4E2FDE178
:101780006281655E8381681B01E020E04EE080E0BD
:101790000E94C11F8AC18A3009F087C1E4E2FDE1DD
:1017A0006281655E8381681B00E020E04CE680E09A
:1017B0000E94C11F7AC1AE01FE01339780819181E1
:1017C000D501ED91FC918E179F070CF45DC09F0130
:1017D00020583F4F281739070CF456C0D6012C91DA
:1017E00021110BC0D7016C91655E9881691B00E0E7
:1017F0004CE08E1B0E94C11FAAC0213061F4D701AA
:101800006C91655E9881691B00E020E04DE08E1BC5
:101810000E94C11F9CC0233061F4D7016C91655EAA
:101820009881691B01E020E04DE08E1B0E94C11FE2
:101830008EC0223061F4D7016C91655E9881691B7E
:1018400000E020E04EE08E1B0E94C11F80C02430CB
:1018500061F4D7016C91655E9881691B01E020E01D
:101860004EE08E1B0E94C11F72C02A3009F06FC06B
:10187000D7016C91655E9881691B00E020E04CE621
:101880008E1B0E94C11F63C0E038B7E0FB070CF459
:101890005EC0803891050CF05AC0D6012C91211100
:1018A0000CC0D7016C91655EDA019C91691B00E068
:1018B0004CE08E1B0E94C11F4AC0213069F4D70141
:1018C0006C91655EDA019C91691B00E020E04DE0BF
:1018D0008E1B0E94C11F3BC0233069F4D7016C915D
:1018E000655EDA019C91691B01E020E04DE08E1BF2
:1018F0000E94C11F2CC0223069F4D7016C91655E33
:10190000DA019C91691B00E020E04EE08E1B0E94F2
:10191000C11F1DC0243069F4D7016C91655EDA01E6
:101920009C91691B01E020E04EE08E1B0E94C11FCC
:101930000EC02A3061F4D7016C91655EDA019C918A
:10194000691B00E020E04CE68E1B0E94C11FB1E144
:10195000EB0EF11C619621E1C20ED11CE814F904D2
:1019600009F029CF01E02BE340E86BE380E00E941F
:101970007D232FE140E86FE180E00E947D2380918C
:10198000241D9091251D20E038E0281B390B2038BC
:10199000310588F440E1481B2BE36FE181950E94FB
:1019A0007D239091241D43E1491B2BE36FE183E0EC
:1019B000891B0E947D238091241D9091251D66E145
:1019C00070E00E94FB8BD82E15E1181B1B3040F4F1
:1019D00001E026E2412F66E280E00E947D2308C0FC
:1019E00001E026E2412F66E28BE08D190E947D2303
:1019F0008091241D9091251D049766E170E00E945E
:101A0000FB8B95E1E92EE81A9AE09E1540F001E083
:101A10002EE24E2D6EE280E00E947D2309C001E09F
:101A20002EE24E2D6EE29BE0981B892F0E947D23B3
:101A30008091241D9091251D089766E170E00E9419
:101A4000FB8B95E1F92EF81AAAE0AF1540F001E002
:101A500026E34F2D66E380E00E947D2341C001E034
:101A600026E34F2D66E39BE0981B892F0E947D2380
:101A700037C001E026E24D2F66E28C2F0E947D23C5
:101A80004E2D4D0F2EE26EE28E2D8C0F0E947D2387
:101A90004F2D4D0F26E366E38F2D8C0F0E947D2383
:101AA000CA5EDA5ECD11E5CF25C00F2EF7E3EF2E2B
:101AB000FDE1FF2EF02DC8E3DDE10F2EF0E4CF2E87
:101AC000FDE1DF2EF02D0F2EF6E38F2EFEE19F2E8F
:101AD000F02D0F2EF4E2AF2EFDE1BF2EF02D6BCED8
:101AE000C1E2CD19DBE2DD1995EA9D19D92EE11A83
:101AF000F11ABFCFDF91CF911F910F91FF90EF901F
:101B0000DF90CF90BF90AF909F908F9008952F92CD
:101B10003F924F925F926F927F928F929F92AF927D
:101B2000BF92CF92DF92EF92FF920F931F93CF93CA
:101B3000DF93CDB7DEB760970FB6F894DEBF0FBE68
:101B4000CDBFCE0101964C019E012F5E3F4FFC019F
:101B500084E68193E217F307E1F78401212C312C0D
:101B6000A82CB92C532D41E031C06191681301C0FC
:101B7000942F2E173F07C9F76C9170E0762F6627D8
:101B8000770F770F770FFD013C970190F081E02DE3
:101B90006E0F7F1F2B01770F66087708C414D504DA
:101BA000E604F70428F4911103C0282E73016201A2
:101BB0008F5F5196803121F0EA2DFB2D952FD5CFE7
:101BC000F80121928F012E173F0741F0A0E3BDE1FC
:101BD000C12CD12CE12CF12C832DEECFD40191E13D
:101BE000ED919E9FF0011124EC5DF24E8A2F881931
:101BF000808BA217B307A1F760960FB6F894DEBFEB
:101C00000FBECDBFDF91CF911F910F91FF90EF904D
:101C1000DF90CF90BF90AF909F908F907F906F900C
:101C20005F904F903F902F9008950F931F93CF9305
:101C3000DF93E7E9FBE187E29DE1DF011C92149667
:101C4000A817B907D9F7A091341E28ECA29FE0018C
:101C50001124C153D94E24E6A29FD00111249D0125
:101C60002D553A4E8D0109581B4E69917991AF015E
:101C700043505109DA016D937C93D9016D919D0117
:101C80004E5F5F4FDA016C93D8014D918D01408317
:101C900034968E179F0749F7DF91CF911F910F91CF
:101CA00008955F926F927F928F929F92AF92BF92B0
:101CB000CF92DF92EF92FF920F931F93CF93DF9318
:101CC00080912901853009F0CEC00F2EF7E9CF2E83
:101CD000FBE1DF2EF02DC4E9DBE10F2EF6E9EF2E5C
:101CE000FBE1FF2EF02D0F2EF6E26F2EFDE17F2E91
:101CF000F02D0F2EF4E2AF2EFDE1BF2EF02D6894F3
:101D0000552454F818E0D6014C91433381F488816E
:101D100099819C01245F3F4F2115B8E03B071CF4DB
:101D20003983288304C0845F9740998388834E0158
:101D300088819981D501ED91FC91E817F907A4F408
:101D40009F013395821793077CF4442309F47EC0E6
:101D50004F3209F476C0D7016C91655E00E022E055
:101D60008E1B0E94C11F61C0E038B7E0FB078CF0FA
:101D70008038910574F4442309F457C04F3261F060
:101D8000D7016C91655E00E022E08E1B0E94C11FAE
:101D90004CC04F3209F049C0E817F90774F49F01AD
:101DA0003395821793074CF4D7016C91655E00E080
:101DB00022E040E38E1B0E94C11FF40180819181CB
:101DC000AC01485F5F4FD5012D913C912417350739
:101DD00084F4B9017395461757075CF4F7016081E5
:101DE000655E912F921B00E022E040E3890F0E9484
:101DF000C11FD4018D919C91AC01405F5F4FF501F3
:101E0000208131812417350784F4B9017395461771
:101E100057075CF4D7016C91655E952D921B00E02D
:101E200022E040E3890F0E94C11FB4E0CB0ED11C19
:101E30002496E4E0EE0EF11CE614F70409F063CFFB
:101E400012C0E03827E0F2074CF4AECFE03857E09C
:101E5000F5075CF38038910544F39BCF80389105FA
:101E60000CF49DCF96CFDF91CF911F910F91FF90F2
:101E7000EF90DF90CF90BF90AF909F908F907F902A
:101E80006F905F9008952F923F924F925F926F9262
:101E90007F928F929F92AF92BF92CF92DF92EF92FA
:101EA000FF920F931F93CF93DF93CDB7DEB76A975F
:101EB0000FB6F894DEBF0FBECDBF0F2EF6E22F2E69
:101EC000FDE13F2EF02D84E29DE1998B888BEBE2C2
:101ED000FDE1FD8BEC8B87E29DE19F878E870F2EC6
:101EE000F7E94F2EFBE15F2EF02D1B8A1A8AFE01C7
:101EF0003196FA87E987F985F98F2A852A8F31018A
:101F000023C2311671F1F6019081F7018081981397
:101F100028C0F3019081F70131978081981321C087
:101F2000E889F989808191810896F70133972081AA
:101F3000318128173907ACF42C5F3F4F8217930784
:101F400084F4EC89FD89808181110BC021E0F401CA
:101F50002083311003C082E00E940F7625E0F50156
:101F600020831F5F81E1E80EF11C103151F60F2E26
:101F7000F4E98F2EFBE19F2EF02D0F2EF6E9AF2E08
:101F8000FBE1BF2EF02D0F2EF7E22F2EFDE13F2EAD
:101F9000F02D0F2EF7E9EF2EFBE1FF2EF02D9A89A1
:101FA0009B871B89EC89FD893397F88FEF8BFD8622
:101FB000EC86F70160816F3209F5F3019081F5013C
:101FC0008081981396C1EE85FF8580818111D0C1F3
:101FD000E889F989808191810896F4012081318115
:101FE000281739070CF0C4C1245E3F4F82179307AE
:101FF0000CF0BEC121E0EF89F88D2083CB84D12E77
:10200000F2018081882309F474C1F3019081F50104
:10201000808198136EC121E12C9DF0012D9DF00D62
:102020001124EC5DF24E8381811163C12C9DF0017E
:102030002D9DF00D1124EC5DF24E8081918108966A
:10204000F40120813181281739070CF052C1A90110
:10205000445F5F4F841795070CF04BC1603359F410
:1020600021E12C9DF0012D9DF00D1124EC5DF24E2F
:1020700081E084833EC16032C1F591E19C9DF00115
:102080009D9DF00D1124EC5DF24E87818A3009F49C
:1020900030C1EE89E11103C089E00E940F7621E191
:1020A0002C9DF0012D9DF00D1124EC5DF24E84E08D
:1020B00087832481822F90E0059644975CF491E118
:1020C0009C9DF0019D9DF00D1124EC5DF24E2B5F67
:1020D00024830FC121E12C9DF0012D9DF00D1124D1
:1020E000EC5DF24E84E1848304C16132C1F591E17B
:1020F0009C9DF0019D9DF00D1124EC5DF24E8781B9
:102100008A3009F4F6C0EE89E11103C089E00E942B
:102110000F7621E12C9DF0012D9DF00D1124EC5D39
:10212000F24E83E087832481822F90E00A964497C1
:102130005CF491E19C9DF0019D9DF00D1124EC5DFE
:10214000F24E265F2483D5C021E12C9DF0012D9D08
:10215000F00D1124EC5DF24E84E18483CAC06F342B
:1021600051F491E19C9DF0019D9DF00D1124EC5DD9
:10217000F24E1582BEC0623509F053C021E12C9D9C
:10218000F0012D9DF00D1124EC5DF24E8185811141
:10219000B0C08E89811103C085E00E940F7688E06F
:1021A000E1E0F4E1A98DBA8D01900D928A95E1F7F5
:1021B00091E19C9DF0019D9DF00D1124EC5DF24E8E
:1021C00080898830B8F00E94628D21E12C9DF00159
:1021D0002D9DF00D1124EC5DF24E66E070E00E9442
:1021E000FB8BA3E0B0E0AC0FBD1FA80FB91F8C9113
:1021F00081877FC00E94628D21E12C9DF0012D9D81
:10220000F00D1124EC5DF24E66E070E00E94FB8B55
:10221000A1E0B0E0AC0FBD1FA80FB91F8C91818762
:1022200068C0623311F581E18C9DF0018D9DF00D48
:102230001124EC5DF24E87818A3009F45AC09E89E0
:10224000911103C082E00E940F76EC85FD8510821B
:1022500021E12C9DF0012D9DF00D1124EC5DF24E3D
:1022600081E087839AE0968344C06232C9F481E1B9
:102270008C9DF0018D9DF00D1124EC5DF24E878157
:102280008A30B9F191E19C9DF0019D9DF00D1124E2
:10229000EC5DF24E1482285031093183208329C02D
:1022A000633339F521E12C9DF0012D9DF00D1124B2
:1022B000EC5DF24E87818A30E1F08E8981110AC08F
:1022C00082E00E940F7600E020E043E368E08CE3C8
:1022D0000E94C11FEC85FD85108221E12C9DF0013B
:1022E0002D9DF00D1124EC5DF24E81E087839AE084
:1022F0009683E4E0EE0EF11CF4E08F0E911C24E0D6
:10230000A20EB11CE214F30409F051CE8A899B8914
:1023100001969B8B8A8B94E0490E511CE1E16E0E75
:10232000711C888999894196998B888BEE85FF85E8
:102330007196FF87EE878C899D8941969D8B8C8B4A
:10234000EA89FB897097D9F0FA89FE8B0F2EF7E2A4
:10235000EF2EFDE1FF2EF02D10E0CC88DD88560138
:1023600021E0A21AB1083F2E4601CE84DF84C9CDF8
:10237000CB84D12EF201808181114DCEBACF6A96E5
:102380000FB6F894DEBF0FBECDBFDF91CF911F9186
:102390000F91FF90EF90DF90CF90BF90AF909F9004
:1023A0008F907F906F905F904F903F902F90089507
:1023B000CF92DF92FF920F931F93CF93DF93C82E9C
:1023C000D12C91E1899FF0011124EC5DF24E8185C1
:1023D000882309F417C1803259F481E18C9DF00102
:1023E0008D9DF00D1124EC5DF24E84E08783F2C0E8
:1023F000813259F481E18C9DF0018D9DF00D112405
:10240000EC5DF24E83E08783E5C08F3451F481E1C7
:102410008C9DF0018D9DF00D1124EC5DF24E158226
:10242000D9C0823351F5E7E9FBE127E23DE112E350
:1024300081E18C9DA0018D9D500D11244C5D524E6B
:10244000BA016E5F7F4F8081811112C01083DF015E
:102450001397EA0188819981089711969C938E932E
:102460001296EB01888188230CF4895F887F8C9316
:102470003496E217F30739F7ADC0833389F5E7E9FE
:10248000FBE127E23DE10F2EF3E3FF2EF02D81E18A
:102490008C9DA0018D9D500D11244C5D524EBA01B2
:1024A0006E5F7F4FDF018081882311F0823399F4C2
:1024B000FC928D0103501109EA01888199810896E7
:1024C000E801998388831197EB01888188230CF4B4
:1024D000895F887F8C933496E217F30719F77AC0E7
:1024E0008C3609F08CC081E18C9DF0018D9DF00D42
:1024F0001124EC5DF24E8781811184C081E18C9DB5
:10250000F0018D9DF00D1124EC5DF24E15828AE0F4
:1025100087838CE386835EC088E00E940F76EBE2BF
:10252000FDE1A4E3BDE14BE35EE181E18C9DB001FF
:102530008D9D700D11246C5C724EFF24F39400E1AC
:1025400010E09F01808181110FC08C91EB01988177
:10255000891750F4F08221503109E801C81BD109D4
:10256000CE01880FE901888371965196E417F5072B
:1025700041F700E020E044E360E08CE30E94C11FEB
:1025800020E044E368E08CE30E94C11F20E044E3C4
:1025900060E18CE30E94C11F20E044E368E18CE32A
:1025A0000E94C11F20E044E360E28CE30E94C11F4F
:1025B00020E044E368E28CE30E94C11F20E044E392
:1025C00060E38CE30E94C11F20E044E368E38CE3F6
:1025D0000E94C11F81E18C9DF0018D9DF00D1124A1
:1025E000EC5DF24E81858C3669F081E18C9DF001C5
:1025F0008D9DF00D1124EC5DF24E118603C08433E5
:10260000A1F78ACFDF91CF911F910F91FF90DF90BB
:10261000CF9008952F923F924F925F926F927F9248
:102620008F929F92AF92BF92CF92DF92EF92FF92E2
:102630000F931F93CF93DF9300D01F92CDB7DEB7D8
:10264000809129010F2EF9E36F2EFDE17F2EF02DF1
:102650000F2EF4E4AF2EFDE1BF2EF02D0F2EFDE383
:102660004F2EFDE15F2EF02D0F2EFEE32F2EFDE10C
:102670003F2EF02D81E089830F2EF7E2EF2EFDE152
:10268000FF2EF02D4501F5013A9780818D3108F03C
:102690009BC0F3018081833108F49FC086E0F20182
:1026A0008083F10180818F3421F457C0898180DEDD
:1026B00054C0823341F4F40180818E3109F04DC061
:1026C000898176DE4AC090EE980F923008F041C0C2
:1026D00087E99BE19B838A8306E21DE164019FE019
:1026E000C91AD1082A813B81F9018081823211F017
:1026F000803321F5F901339740815181F6018081C2
:10270000918184179507D4F4409684179507B4F007
:10271000F9013197808188230CF4895F982F959572
:1027200095959595F801808188230CF4895F8595AE
:1027300085958595981302C089813ADE8A819B81AF
:1027400004969B838A830F5E1F4F8E159F0551F65B
:1027500004C0882311F089812BDEF40180818F5F12
:10276000833610F4808302C0F40110820E94628DCF
:102770006FE070E00E94FB8B892B21F0F3018081D8
:10278000813071F40E94628DF401359781709078E8
:10279000992324F401978E6F9F6F01968F5F80833A
:1027A000F981FF5FF98381E1680E711C91E1A90E47
:1027B000B11CE1E14E0E511CF1E12F0E311C89815B
:1027C000803109F05FCF12C087E0F2018083F10110
:1027D00080818F3409F06DCF69CF87E0F20180836B
:1027E000F10180818F3409F064CFB7CF0F900F9043
:1027F0000F90DF91CF911F910F91FF90EF90DF909D
:10280000CF90BF90AF909F908F907F906F905F9090
:102810004F903F902F90089514D5809129018530D5
:1028200009F05FC08091341D813031F448E454E1F7
:102830006DE180E492D63DC0823031F44CE454E145
:102840006DE180E48AD635C0833031F440E554E14F
:102850006DE180E482D62DC08A3058F04DEC849F23
:10286000412D1124469546954695405D6DE18AE3DC
:10287000F9D44091341D8DEC489F812D112486950B
:1028800086958695880F982F990F990F890F481B69
:10289000405D6DE180E4E6D444E554E16DE186E419
:1028A0005CD647E554E165E285E257D684E1809342
:1028B000290150D42FEF81E19AE7215080409040C8
:1028C000E1F700C0000080912901853051F480912A
:1028D000341E8F5F8093341E833018F084E1809320
:1028E000290108955F926F927F928F929F92AF928B
:1028F000BF92CF92DF92EF92FF920F931F93CF93ED
:10290000DF930E94280991D91092341E912C0F2E2A
:10291000F4E2EF2EFDE1FF2EF02D55245394689440
:10292000772471F80F2EFDEC8F2EF02D0F2EF6E38D
:10293000CF2EFEE1DF2EF02D152D672C0F2EF6E2A7
:10294000AF2EFDE1BF2EF02D45C16BD1823049F491
:1029500068D1813031F0F7018285811102C0728621
:102960000BC05FD1813041F45CD1823029F0F70196
:102970008285811101C0528686E043D1882321F0EF
:1029800086E0F70180870AC087E03BD1882321F0E9
:1029900087E0F701808702C0F701108684E031D11B
:1029A000882319F080E004DD04C085E02AD181117C
:1029B0006FD147D42FDE67DA0E947A09F701848548
:1029C000833050F029DF0E9428092FD980912901F6
:1029D000853009F4912C35D40E946D0B62D941E603
:1029E00054E160E080E0B9D548E654E160E084E37A
:1029F000B4D5F70144854F5C60E08CE433D44FE2FA
:102A000060E082E52FD443E360E088E52BD42BE03F
:102A10004FE168E080E083D3C0E0F70185818C1747
:102A200040F0012F2BE081E08C0F482F68E00E94DE
:102A30007D23CF5FCE3189F728E14BE06DE080E068
:102A40006ED3F7014185442331F000E020E06FE0D0
:102A5000862D0E94C11F5BD8F7018089813031F437
:102A600048E454E168E080E478D533C0823031F442
:102A70004CE454E168E080E470D52BC0833031F43D
:102A800040E554E168E080E468D523C08A3050F026
:102A9000889D412D1124469546954695405D68E0F8
:102AA0008AE3E0D3F7014089489D812D1124869562
:102AB00086958695880F982F990F990F890F481B37
:102AC000405D68E080E4CED344E554E168E086E40C
:102AD00044D525E04FE760E08EE521D3E501FE0116
:102AE000688166230CF4695F6595659565956F5FF0
:102AF00032978081918199230CF4CF96082E892FEB
:102B0000000C881F990B000C881F991F815AB2D1A5
:102B10006196CC15DD0519F71DD391105BC04DE60C
:102B200054E166E18EE219D54091341E4F5C66E1B6
:102B30008CE498D343E36EE180E494D30BD364E058
:102B400087E40E944B76FFEF29E688E1F1502040B0
:102B50008040E1F700C0000042E36EE180E482D3F0
:102B6000F9D264E087E40E944B769FEFE9E6F8E152
:102B70009150E040F040E1F700C0000041E36EE119
:102B800080E470D3E7D264E087E40E944B762FEFB5
:102B900089E698E1215080409040E1F700C00000B4
:102BA00043E754E16EE180E4D8D4D4D264E083E218
:102BB0000E944B76EFEFF4E32CE0E150F040204030
:102BC000E1F700C0000046E35AE16EE180E4C5D4BD
:102BD000C1D2952C80912901853009F4B6CE10928E
:102BE000341EDF91CF911F910F91FF90EF90DF90F6
:102BF000CF90BF90AF909F908F907F906F905F909D
:102C000008959091A6229093A5222091A62230E0CB
:102C1000A90102C0559547958A95E2F7CA018170CE
:102C200008958091A6228093A5228091A62280FDFE
:102C300021C08091A62282FD1FC08091A62281FD25
:102C40001DC08091A62283FD1BC08091A62284FD19
:102C500019C08091A62285FD17C08091A62286FD0D
:102C600015C08091A622881F8827881F98E0981B8E
:102C7000892F089580E0089582E0089581E0089505
:102C800083E0089584E0089585E0089586E008953E
:102C90000F931F93CF93DF9310E0CDE6DFE101E0C8
:102CA0009A819F788C81807F9A831B828C8328E213
:102CB0004AE567E181E233D247E259E168E182E225
:102CC0004CD4112371F04EE760E282E2CBD240E2B5
:102CD00068E182E2C7D23ED2A4DF823009F03FC071
:102CE0000BC04EE768E182E2BDD240E260E282E2E0
:102CF000B9D230D296DF33C0113089F52BC0112301
:102D000091F136C081E00E940F76111109C014C004
:102D100088DF863009F0C4CF82E00E940F760CC0B5
:102D200084E1809329012FE789EA93E021508040D4
:102D30009040E1F700C000008091290181111CC082
:102D40002FE789EA93E0215080409040E1F700C0EE
:102D5000000012C080E00E940F7610E0A1CF61DF7A
:102D6000813031F4CCCF80E00E940F76102F98CFC5
:102D700058DF873069F6C6CFDF91CF911F910F9151
:102D80000895813011F4479A01C04798613011F4D9
:102D9000469A01C0469884E18A95F1F7089598B162
:102DA000977E98B994E19A95F1F7813019F48FE301
:102DB00082B902C08EE382B984E1982F9A95F1F727
:102DC000429A982F9A95F1F742988A95F1F70895CB
:102DD00098B1977E98B994E1292F2A95F1F7806CE4
:102DE00082B9892F8A95F1F7429A892F8A95F1F74E
:102DF00042989A95F1F7089598B1977E98B994E121
:102E0000292F2A95F1F78770886B82B9892F8A95C7
:102E1000F1F7429A892F8A95F1F742989A95F1F73E
:102E2000089598B1977E98B994E1292F2A95F1F7E2
:102E30008F73806482B9892F8A95F1F7429A892F1E
:102E40008A95F1F742989A95F1F7089598B1977E8F
:102E5000906198B994E1292F2A95F1F782B9892FC9
:102E60008A95F1F7429A892F8A95F1F742989A95B7
:102E7000F1F708950F9388230CF48FE7603408F07E
:102E80006FE38F77E82FF0E0EE0FFF1FEE0FFF1FCD
:102E9000EE0FFF1FEB5CF14E062F0F7321E030E0C9
:102EA00040E050E060E070E080E090E00E94A68C9E
:102EB000A0812A2BA1813A2BA2814A2BA3815A2BD4
:102EC000A4816A2BA5817A2BA6818A2BA7819A2BB4
:102ED00020833183428353836483758386839783FE
:102EE0000F9108950F9388230CF48FE7603408F056
:102EF0006FE38F77E82FF0E0EE0FFF1FEE0FFF1F5D
:102F0000EE0FFF1FEB5CF14E062F0F7321E030E058
:102F100040E050E060E070E080E090E00E94A68C2D
:102F20002095309540955095609570958095909539
:102F3000A0812A23A1813A23A2814A23A3815A2373
:102F4000A4816A23A5817A23A6818A23A7819A2353
:102F5000208331834283538364837583868397837D
:102F60000F910895CF92DF92EF92FF920F931F93EC
:102F7000CF93DF9366230CF44EC044230CF44FE749
:102F8000803408F08FE3082F0F73A62FAF774F77A9
:102F9000C42E4A1750F58A2FA42FC82E26C0EA2F18
:102FA000F0E0EE0FFF1FEE0FFF1FEE0FFF1FEB5CB9
:102FB000F14ED080D22AE180E32AF280F42A038104
:102FC000052B1481162BD581D72BC681C82BB78131
:102FD000B92BD082E182F28203831483D583C68326
:102FE000B783AF5FCA16D8F61AC021E030E040E0E0
:102FF00050E060E070E080E090E00E94A68CCFCFCF
:10300000803408F08FE3082F0F730F2EFFE7CF2EC9
:10301000F02DAFE7EACF44239CF36FE7B1CFDF9108
:10302000CF911F910F91FF90EF90DF90CF90089577
:10303000CF92DF92EF92FF920F931F93CF93DF9384
:1030400088230CF48FE7C62F603408F0CFE3A42F59
:10305000403408F0AFE38F77CF73AF73AC1718F439
:103060009C2FCA2FA92FE82FF0E0EE0FFF1FEE0FC5
:10307000FF1FEE0FFF1FEB5CF14EB0E08D010F5F05
:103080001F4F2FEF3FEF4FEF5FEF6FEF7FEF8FEFB0
:103090009FEF0E94A68CC22EC094D32ED094E42E13
:1030A000E094F52EF094162F1095D72FD095B82FC9
:1030B000B095A92FA0952FEF3FEF4FEF5FEF6FEF88
:1030C0007FEF8FEF9FEF0C2F0E94A68C2C213D21CC
:1030D0004E215F2161237D238B239A23A0812A2BFC
:1030E000A1813A2BA2814A2BA3815A2BA4816A2B5E
:1030F000A5817A2BA6818A2BA7819A2B20833183E5
:10310000428353836483758386839783DF91CF9152
:103110001F910F91FF90EF90DF90CF9008950F9344
:103120001F93CF93DF93D82F062F142FC22F422F38
:103130007FDF4C2F602F812F7BDF412F6D2F802F62
:1031400011DF412F6D2F8C2F0DDFDF91CF911F915C
:103150000F9108959F92AF92BF92CF92DF92EF921C
:10316000FF920F931F93CF93DF9360E081E009DE1E
:10317000C12CD12C912C0F2EF5E3AF2EFEE1BF2EEA
:10318000F02D0F2EF5E3EF2EF0E2FF2EF02D892D1E
:1031900033DE80E046DE1C2DE501288139814A813D
:1031A0005B816C817D818E819F812896012F0E9499
:1031B000C18C822F4BDECE15DF0579F7939488E022
:1031C000C80ED11C88E09812E2CF61E080E0D9DD22
:1031D000C12CD12C912C0F2EF5E3AF2EF0E2BF2E97
:1031E000F02D0F2EF5E3EF2EF2E2FF2EF02D892DBC
:1031F00003DE80E016DE1C2DE501288139814A813D
:103200005B816C817D818E819F812896012F0E9438
:10321000C18C822F1BDECE15DF0579F7939488E0F1
:10322000C80ED11C88E09812E2CFDF91CF911F9198
:103230000F91FF90EF90DF90CF90BF90AF909F9055
:103240000895E5E3FEE185E392E2108211821282A5
:10325000138214821582168217823896E817F907AE
:10326000A1F708952F923F924F925F926F927F92B3
:103270008F929F92AF92BF92CF92DF92EF92FF9286
:103280000F931F93CF93DF9300D000D0CDB7DEB75D
:10329000B82FE62FF42F842F90E080978036910589
:1032A0000CF4A3C0862F90E09A83898308E310E092
:1032B000081B190B2FEF3FEF4FEF5FEF6FEF7FEF23
:1032C0008FEF90E00E94BF8C722E832E942EA52E3D
:1032D000B62EC72ED82E192F20E03FEF4FEF5FEF0D
:1032E0006FEF7FEF8FEF9FEF0E2F0E94A68C722A59
:1032F000832A942AA52AB62AC72AD82A192BAB2FA3
:10330000B0E0AA0FBB1FAA0FBB1FAA0FBB1FAB5C6D
:10331000B14E8F2F90E0AC01440F551F440F551F45
:10332000840F951FE12CF12C2C01E0E44E1AE1E012
:103330005E0A7B823701F201E60DF71DE05BF64F76
:1033400024912F7730E040E050E060E070E080E0D2
:1033500090E009810E94A68C2C90FB812F2211966F
:103360003C90119738201296EC901297E920139612
:10337000FC901397FA2014960C9114970B21159634
:10338000EC911597EC21EC831696FC911697FD2194
:103390001796EC911797E12322292C933329119644
:1033A0003C9311974E2912964C9312975F291396CE
:1033B0005C931397602B14966C9314972C81722B4B
:1033C00015967C9315978F2B16968C9316979E2B9C
:1033D00017969C93179718968FEF681A780A95E0BE
:1033E0006916710409F0A7CFA1C0862F90E09A83D7
:1033F000898308E310E0081B190B2FEF3FEF4FEF15
:103400005FEF6FEF7FEF8FEF90E00E94BF8C722E27
:10341000832E942EA52EB62EC72ED82E192F20E03F
:103420003FEF4FEF5FEF6FEF7FEF8FEF9FEF0E2FCD
:103430000E94A68C722A832A942AA52AB62AC72A11
:10344000D82A192BAB2FB0E0AA0FBB1FAA0FBB1FA6
:10345000AA0FBB1FAB5CB14E4F2F50E0CA01880FC3
:10346000991F880F991F480F591FE12CF12C2A0131
:1034700090EA491A51087B823701F201E60DF71DE7
:10348000E05BF64F24912F7730E040E050E060E0C1
:1034900070E080E090E009810E94A68C2C90EB8186
:1034A0002E2211963C90119738201296EC9012978C
:1034B000E9201396FC901397FA2014960C91149718
:1034C0000B211596EC911597EC21EC831696FC9147
:1034D0001697FD211796EC911797E12322292C933B
:1034E000332911963C9311974E2912964C931297BB
:1034F0005F2913965C931397602B14966C93149723
:103500002C81722B15967C9315978F2B16968C9386
:1035100016979E2B17969C93179718968FEF681AFD
:10352000780A95E06916710409F0A7CF0F900F9003
:103530000F900F90DF91CF911F910F91FF90EF901F
:10354000DF90CF90BF90AF909F908F907F906F90C3
:103550005F904F903F902F9008952F923F924F92FF
:103560005F926F927F928F929F92AF92BF92CF9213
:10357000DF92EF92FF920F931F93CF93DF93CDB71C
:10358000DEB72A970FB6F894DEBF0FBECDBF6F83AC
:10359000582E88875C834B8343C2252D30E02B5FF8
:1035A0003F4F2038310524F0AF81A85FAF835884A6
:1035B000BF81AB2FB0E0BA83A9839D01295F3F4F44
:1035C000213431050CF031C290E0809780369105AE
:1035D0000CF4DBC02FEF3FEF4FEF5FEF6FEF7FEFAC
:1035E0008FEF90E008E310E00A1B1B0B0E94BF8CDA
:1035F000222E332E442E652EB62FA72F782E892EFD
:1036000020E03FEF4FEF5FEF6FEF7FEF8FEF9FEF28
:1036100009810E94A68C222A332A442A652AB62BC5
:10362000BD83A72BAE83782A892AA12CB12CA52D86
:10363000AA0DB0E0AA0FBB1FAA0FBB1FAA0FBB1F8A
:10364000AB5CB14E9C9092201196CC901197C32008
:103650001296DC901297D4201396EC901397E620E4
:103660001496FC901497ED81FE2215961C911597E7
:10367000FE811F2316968C91169787218A871796AD
:103680008C911797882189879C921196CC921197DB
:103690001296DC9212971396EC9213971496FC9262
:1036A000149715961C9315972A8516962C931697A2
:1036B00017968C931797EB81FC81808190E0805462
:1036C0009109FC01EE0FFF1FEE0FFF1FE80FF91F1E
:1036D000EA0DFB1DE05BF64F249130E040E050E046
:1036E00060E070E080E090E009810E94A68C2929CA
:1036F0003C294D295E296F29172BFA858F2B798557
:10370000972B2C9311963C93119712964C931297EA
:1037100013965C93139714966C93149715961C93B9
:10372000159716968C93169717969C938FEFA81A59
:10373000B80A95E0A916B10409F079CF95E0950D86
:10374000E92FF0E0EE0FFF1FEE0FFF1FEE0FFF1F40
:10375000EB5CF14E208122223181332242814422CE
:10376000538165226481AD816A237581BE817B238B
:1037700086817822878188222082318242826382F8
:103780006483758376828782DBC02FEF3FEF4FEF34
:103790005FEF6FEF7FEF8FEF90E008E310E0A9811C
:1037A000BA810A1B1B0B0E94BF8C222E332E442E83
:1037B000652EB62FA72F782E892E20E03FEF4FEFF2
:1037C0005FEF6FEF7FEF8FEF9FEF09810E94A68C75
:1037D000222A332A442A652AB62BBD83A72BAE831F
:1037E000782A892AA12CB12CA52DAA0DB0E0AA0F08
:1037F000BB1FAA0FBB1FAA0FBB1FAB5CB14E9C9097
:1038000092201196CC901197C3201296DC901297BB
:10381000D4201396EC901397E6201496FC901497FE
:10382000ED81FE2215961C911597FE811F23169699
:103830008C91169787218A8717968C9117978821E4
:1038400089879C921196CC9211971296DC921297CE
:103850001396EC9213971496FC92149715961C935A
:1038600015972A8516962C93169717968C9317976B
:10387000EB81FC81808190E08097FC01EE0FFF1FBF
:10388000EE0FFF1FE80FF91FEA0DFB1DE05BF64F7F
:10389000249130E040E050E060E070E080E090E0B3
:1038A00009810E94A68C29293C294D295E296F296E
:1038B000172BFA858F2B7985972B2C9311963C9398
:1038C000119712964C93129713965C931397149634
:1038D0006C93149715961C93159716968C931697C0
:1038E00017969C938FEFA81AB80A95E0A916B10411
:1038F00009F07ACF95E0950DE92FF0E0EE0FFF1F6C
:10390000EE0FFF1FEE0FFF1FEB5CF14E2081222216
:103910003181332242814422538165226481AD8109
:103920006A237581BE817B238681782287818822E4
:1039300020823182428263826483758376828782A9
:1039400055245394590EE52DF0E0EE0FFF1FEE0FB6
:10395000FF1FEE0FFF1FEB5CF14E08E310E0A981A3
:10396000BA810A1B1B0B2FEF3FEF4FEF5FEF6FEF9B
:103970007FEF8FEF90E00E94BF8C822E932EA42EBB
:10398000B52EC62ED72E782E692E20E03FEF4FEFB2
:103990005FEF6FEF7FEF8FEF9FEF09810E94A68CA3
:1039A000E82CE22AF92CF32A0A2D042B1B2D152BC7
:1039B000C62A7D29872996292081E2223181F32296
:1039C000428104235381152364816C212581722354
:1039D000B6818B23A7819A23E082F182028313832D
:1039E0006483758386839783AB81BC8111968C91A8
:1039F00011978A3021F01196BC83AB8308C0BF8138
:103A0000B85FBF83AB81BC811296BC83AB83AB81B3
:103A1000BC818C918D3021F41196BC83AB8358848A
:103A2000AB81BC818C918111B8CD2A960FB6F894E8
:103A3000DEBF0FBECDBFDF91CF911F910F91FF90E1
:103A4000EF90DF90CF90BF90AF909F908F907F903E
:103A50006F905F904F903F902F9008952F923F92DC
:103A60004F925F926F927F928F929F92AF92BF928E
:103A7000CF92DF92EF92FF920F931F93CF93DF933A
:103A8000CDB7DEB72B970FB6F894DEBF0FBECDBF14
:103A90006F835C834B832887682E898753C2262DCA
:103AA00030E02B5F3F4F2038310524F02F81285F15
:103AB0002F836984BF81AB2FB0E0BA83A9839D01B6
:103AC000295F3F4F213431050CF041C290E08097CF
:103AD000803691050CF4DBC02FEF3FEF4FEF5FEF27
:103AE0006FEF7FEF8FEF90E008E310E00A1B1B0BF6
:103AF0000E94BF8C222E332E442E552EB62FA72F78
:103B0000782E892E20E03FEF4FEF5FEF6FEF7FEFD2
:103B10008FEF9FEF09810E94A68C222A332A442A24
:103B2000552AB62BBD83A72BAE83782A892AA12CD0
:103B3000B12CA62DAA0DB0E0AA0FBB1FAA0FBB1F68
:103B4000AA0FBB1FAB5CB14E9C9092201196CC90FB
:103B50001197C3201296DC901297D4201396EC9004
:103B60001397E5201496FC901497ED81FE2215968C
:103B70001C911597FE811F2316968C91169787210D
:103B80008B8717968C91179788218A879C9211961C
:103B9000CC9211971296DC9212971396EC9213978F
:103BA0001496FC92149715961C9315972B851696D0
:103BB0002C93169717968C931797EB81FC81808135
:103BC00090E080549109FC01EE0FFF1FEE0FFF1FE4
:103BD000E80FF91FEA0DFB1DE05BF64F249130E082
:103BE00040E050E060E070E080E090E009810E94F9
:103BF000A68C29293C294D295E296F29172BFB8585
:103C00008F2B7A85972B2C9311963C9311971296B4
:103C10004C93129713965C93139714966C93149786
:103C200015961C93159716968C93169717969C933A
:103C30008FEFA81AB80A95E0A916B10409F079CF58
:103C400095E0960DE92FF0E0EE0FFF1FEE0FFF1F3E
:103C5000EE0FFF1FEB5CF14E2081222231813322D7
:103C600042814422538155226481AD816A2375814A
:103C7000BE817B23868178228781882220823182BF
:103C8000428253826483758376828782DBC02FEF02
:103C90003FEF4FEF5FEF6FEF7FEF8FEF90E008E3C5
:103CA00010E0A981BA810A1B1B0B0E94BF8C222E37
:103CB000332E442E552EB62FA72F782E892E20E096
:103CC0003FEF4FEF5FEF6FEF7FEF8FEF9FEF0981D8
:103CD0000E94A68C222A332A442A552AB62BBD8359
:103CE000A72BAE83782A892AA12CB12CA62DAA0D48
:103CF000B0E0AA0FBB1FAA0FBB1FAA0FBB1FAB5C74
:103D0000B14E9C9092201196CC901197C3201296A0
:103D1000DC901297D4201396EC901397E52014961C
:103D2000FC901497ED81FE2215961C911597FE814B
:103D30001F2316968C91169787218B8717968C9147
:103D4000179788218A879C921196CC921197129688
:103D5000DC9212971396EC9213971496FC92149798
:103D600015961C9315972B8516962C9316971796D8
:103D70008C931797EB81FC81808190E08097FC0108
:103D8000EE0FFF1FEE0FFF1FE80FF91FEA0DFB1DDF
:103D9000E05BF64F249130E040E050E060E070E0FE
:103DA00080E090E009810E94A68C29293C294D29B8
:103DB0005E296F29172BFB858F2B7A85972B2C93E8
:103DC00011963C93119712964C93129713965C930D
:103DD000139714966C93149715961C931597169633
:103DE0008C93169717969C938FEFA81AB80A95E0B4
:103DF000A916B10409F07ACF95E0960DE92FF0E00D
:103E0000EE0FFF1FEE0FFF1FEE0FFF1FEB5CF14EDB
:103E10002081222231813322428144225381552242
:103E20006481AD816A237581BE817B23868178227E
:103E30008781882220823182428253826483758303
:103E40007682878266246394690EE62DF0E0EE0F99
:103E5000FF1FEE0FFF1FEE0FFF1FEB5CF14E08E39D
:103E600010E0A981BA810A1B1B0B2FEF3FEF4FEF28
:103E70005FEF6FEF7FEF8FEF90E00E94BF8C922E8D
:103E8000A32EB42EC52ED62EE72E882E792E20E016
:103E90003FEF4FEF5FEF6FEF7FEF8FEF9FEF098106
:103EA0000E94A68C2929FA2CF32A0B2D042B1C2DF9
:103EB000152BD62A7E29882997299080292131819E
:103EC000F322428104235381152364816D213581BE
:103ED0007323B6818B23A7819A232083F1820283E7
:103EE00013836483758386839783EB81FC8181814F
:103EF0008A3051F4FF81F85FFF832B813C812E5F74
:103F00003F4F3C832B831EC08D3021F0388531110B
:103F100008C012C08B819C8102969C838B8369842C
:103F200011C080E09885AFECB7E01197F1F700C0C1
:103F300000008F5F8913F7CFEB81FC813196FC8302
:103F4000EB8308D9AB81BC818C918111A8CD02D9BA
:103F50002B960FB6F894DEBF0FBECDBFDF91CF9189
:103F60001F910F91FF90EF90DF90CF90BF90AF9097
:103F70009F908F907F906F905F904F903F902F9089
:103F800008953F924F925F926F927F928F929F928D
:103F9000AF92BF92CF92DF92EF92FF920F931F9357
:103FA000CF93DF93C82ED62FC42F122F002309F4EE
:103FB0005AC0E42FF0E0EE0FFF1FEE0FFF1FEE0FD1
:103FC000FF1FE05BFE4F2491A62EE82FF0E037960E
:103FD000DF01AA0FBB1FAA0FBB1FAA0FBB1FAB5C41
:103FE000B14E30E040E050E060E070E080E090E012
:103FF0000D2F0E94A68CDC912D2B1196DC91119730
:104000003D2B1296DC9112974D2B1396DC91139752
:104010005D2B1496DC9114976D2B1596DC911597FA
:104020007D2B1696DC9116978D2B1796DC911797A2
:104030009D2B2C9311963C93119712964C931297AB
:1040400013965C93139714966C93149715967C9320
:10405000159716968C93169717969C931E161F0607
:104060000CF412C17DC190E0803891050CF078C14C
:10407000A62EB12CE8E3F0E0EA19FB092FEF3FEFA1
:104080004FEF5FEF6FEF7FEF8FEF90E00E2F0E940B
:10409000BF8C322E432E542E652E762E872E982ED0
:1040A000D92E20E03FEF4FEF5FEF6FEF7FEF8FEF05
:1040B0009FEF0D2F0E94A68C322A432A542A652A8C
:1040C000762A872A982AD92AEC2FF0E0EE0FFF1FD4
:1040D000EE0FFF1FEE0FFF1FE05BFE4F8C2D90E0F9
:1040E000DC01AA0FBB1FAA0FBB1FAA0FBB1FAB5C33
:1040F000B14E20E830E07901E81AF90AC0E0D0E0DA
:1041000007C0219631961896EC16FD0609F428C1D1
:10411000111122C18C9183218C9311968C9111974E
:10412000842111968C93119712968C911297852168
:1041300012968C93129713968C911397862113964F
:104140008C93139714968C911497872114968C93C3
:10415000149715968C911597882115968C93159721
:1041600016968C911697892116968C93169717960A
:104170008C9117978D2117968C931797249130E087
:1041800040E050E060E070E080E090E00A2D0E94A6
:10419000A68CCC902C292C9311962C911197322B14
:1041A00011963C93119712962C911297422B1296CE
:1041B0004C93129713962C911397522B13965C9352
:1041C000139714962C911497622B14966C93149752
:1041D00015962C911597722B15967C93159716961C
:1041E0002C911697822B16968C93169717968C9176
:1041F0001797982B17969C931797113009F03FC08B
:10420000249130E040E050E060E070E080E090E039
:104210000A2D0E94A68C0C9120232C9311962C9190
:104220001197322311963C93119712962C91129765
:10423000422312964C93129713962C911397522364
:1042400013965C93139714962C91149762231496EB
:104250006C93149715962C911597722315967C9351
:10426000159716962C911697822316968C9316976F
:1042700017968C911797982317969C931797C7308A
:10428000D10509F03ECF6CC0D12CD601AA0FBB1FBF
:10429000AA0FBB1FAA0FBB1FA359B14E86E0C80EC1
:1042A000D11CD0E0CC0FDD1FCC0FDD1FCC0FDD1FEC
:1042B000E12CF12C2196FE01EE0DFF1DE05BFE4F7F
:1042C0002491189730E040E050E060E070E080E03A
:1042D00090E00A2D0E94A68CEC912E2B2C93119627
:1042E0002C911197322B11963C93119712962C9189
:1042F0001297422B12964C93129713962C91139768
:10430000522B13965C93139714962C911497622B4F
:1043100014966C93149715962C911597722B1596ED
:104320007C93159716962C911697822B16968C9344
:10433000169717968C911797982B17969C9317970B
:10434000EC14FD0469F08FEFE81AF80A87E0E8162C
:10435000F10409F0B0CF04C0123009F04ECF0ECFF7
:10436000DF91CF911F910F91FF90EF90DF90CF9051
:10437000BF90AF909F908F907F906F905F904F9085
:104380003F9008952F923F924F925F926F927F924B
:104390008F929F92AF92BF92CF92DF92EF92FF9255
:1043A0000F931F93CF93DF93CDB7DEB729970FB647
:1043B000F894DEBF0FBECDBFF22E1E2D2C2C312C5B
:1043C000662E712C002321F0183008F40EC17CC138
:1043D000183008F079C18E2C912CA82EB12CD40164
:1043E000AA0DBB1DA038B1050CF06EC18FEF90E097
:1043F00002C095958795CA94E2F702C0880F991F6D
:104400006A95E2F7809590958D83492EE92EEE0C02
:10441000EE085E2C3E2D9E2DB40150E06A01CC0CBE
:10442000DD1CCC0CDD1CCC0CDD1C3A8229827C828C
:104430006B827F836E83B987A8877E2C632E3E2C88
:10444000292E0CC0A12FB0E0BF83AE83AA0DBB1DE7
:10445000B987A887A038B1050CF036C1F11030C17A
:10446000E885F985E819F909EE0FFF1FEE0FFF1F28
:10447000EE0FFF1FEB5CF14E7081BD817B236181EC
:10448000642152815E214381452134813721258178
:1044900026219681932187818221708361835283B3
:1044A00043833483258396838783EE81FF81EC0DDC
:1044B000FD1DE05BFE4F4491E885F985E819F90997
:1044C000EE0FFF1FEE0FFF1FEE0FFF1FEB5CF14E15
:1044D00050E0098002C0559547950A94E2F7952F60
:1044E000990F990B242F352F492F592F692F792F89
:1044F000892F0B810E94A68C0081202B0181302BFB
:104500000281402B0381502B0481602B0581702B8D
:104510000681802B0781902B208331834283538334
:104520006483758386839783E1E0FE1259C0EE8130
:10453000FF81EC0DFD1DE05BFE4FE491A885B98580
:10454000A819B909AA0FBB1FAA0FBB1FAA0FBB1F2F
:10455000AB5CB14E2E2F30E0098002C03595279517
:104560000A94E2F7932F990F990B492F592F692F2E
:10457000792F892F0B810E94A68CEC912E23119606
:10458000EC9111973E231296EC9112974E231396BD
:10459000EC9113975E231496EC9114976E23159665
:1045A000EC9115977E231696EC9116978E2317960D
:1045B000EC9117979E232C9311963C93119712968A
:1045C0004C93129713965C93139714966C931497CD
:1045D00015967C93159716968C93169717969C9321
:1045E0001F5F183009F02ECF6FC050E0440F551FE9
:1045F000440F551F440F551FA82EB12CF12C6A01F2
:10460000A12FB0E0F601EA0FFB1FE05BFE4FE49143
:10461000AA0DBB1DAE19BF09AA0FBB1FAA0FBB1F56
:10462000AA0FBB1FAB5CB14EF0E0022C02C0F595A7
:10463000E7950A94E2F79F2F990F990B2E2F3F2FA2
:10464000492F592F692F792F892F062D0E94A68C6B
:10465000EC912E2B1196EC9111973E2B1296EC912A
:1046600012974E2B1396EC9113975E2B1496EC91A8
:1046700014976E2B1596EC9115977E2B1696EC9150
:1046800016978E2B1796EC9117979E2B2C931196BD
:104690003C93119712964C93129713965C93139731
:1046A00014966C93149715967C93159716968C9385
:1046B000169717969C931F5F183009F0A1CF04C07E
:1046C000F2E0FF1231CFF1CE29960FB6F894DEBF9B
:1046D0000FBECDBFDF91CF911F910F91FF90EF9053
:1046E000DF90CF90BF90AF909F908F907F906F9012
:1046F0005F904F903F902F9008952F923F924F924E
:104700005F926F927F928F929F92AF92BF92CF9261
:10471000DF92EF92FF920F931F93CF93DF9300D01E
:1047200000D0CDB7DEB7D82E162F842F90E08D198C
:104730009109DC0122F4AA27BB27A81BB90B822F01
:1047400090E0811B9109FC0122F4EE27FF27E81B72
:10475000F90BEA17FB070CF061C04D1530F4812FFF
:10476000122F282F8D2DD42E482F812E912CE42E00
:10477000F12CED18F108622F70E068197909072E05
:10478000000C880B990B0E940C8B2B013C01B7018C
:104790000F2C000C880B990B0E940C8B9B01AC0119
:1047A000C301B2010E94718A69837A838B839C83DF
:1047B000FF200CF491C0212C312C2401990C6608A7
:1047C0007708122D1D0DC301B2010E940C8B4B0105
:1047D0005C01B101032C000C880B990B0E940C8B1F
:1047E00029813A814B815C810E94988B9B01AC01AD
:1047F000C501B4010E940D8A0E94DE8A002321F0C7
:10480000812F0E943A1703C0812F0E9472178FEFE9
:10481000281A380AE214F304A4F65EC0211730F413
:10482000812F122F282F8D2DD42E482F8D2C912C97
:10483000A22EB12CA11AB108642F70E06819790971
:10484000072E000C880B990B0E940C8B6B017C01CE
:10485000B5010B2C000C880B990B0E940C8B9B0153
:10486000AC01C701B6010E94718A69837A838B8388
:104870009C83BB208CF1212C312C6401990CEE0817
:10488000FF08C701B6010E940C8B2B013C01B1014E
:10489000032C000C880B990B0E940C8B29813A8108
:1048A0004B815C810E94988B9B01AC01C301B201DA
:1048B0000E940D8A0E94DE8A862F622D610F0023DE
:1048C00019F00E943A1702C00E947217EFEF2E1AD9
:1048D0003E0AA214B304ACF60F900F900F900F9005
:1048E000DF91CF911F910F91FF90EF90DF90CF90CC
:1048F000BF90AF909F908F907F906F905F904F9000
:104900003F902F900895FF920F931F93CF93DF93C3
:10491000C82FF62E142FD22F00E0482FEEDE2D2FB9
:10492000412F6D2F8C2FE9DE2F2D412F6F2D8C2FD6
:10493000E4DE2D2F412F6D2F8C2FDFDEDF91CF9105
:104940001F910F91FF900895CF92DF92EF92FF9207
:104950000F931F93CF93DF93C82ED62EC42FD0E092
:10496000D195C195D1097E01EE0CFF1C82E0E80EC5
:10497000F11C00E010E06C2F6D0D8C2D801B0E944F
:104980003A176D2D601B8C2D8C1B0E943A176D2DD4
:104990006C1B8C2D800F0E943A176D2D600F8C2F91
:1049A0008C0D0E943A170E151F058CF00F5F1F4FDC
:1049B000C801880F991F01968E0D9F1DCE15DF052A
:1049C0002CF0081719075CF47C0101C07C012196CA
:1049D000CE01880F991F0196E80EF91E01C07C01D7
:1049E000DD234CF2DF91CF911F910F91FF90EF905B
:1049F000DF90CF9008958F929F92AF92BF92CF9207
:104A0000DF92EF92FF920F931F93CF93DF93B82E15
:104A1000162FE42EF12CF194E194F108E701CC0F6C
:104A2000DD1F229691E0C12CD12CA12C992389F075
:104A300001E0812E8E0C282D8B2D8C19482F912E64
:104A40009E18692D5ADE282D8B2D8C0D482F692D2F
:104A500054DE91E0CC16DD060CF49A2D992359F022
:104A60008FEFC81AD80A9601220F331F2F5F3F4FCE
:104A70002C0F3D1F01C09E01EC16FD061CF0C21656
:104A8000D30654F48FEFE81AF80AE701CC0FDD1FC4
:104A90002196C20FD31F01C0E9011E141F0434F672
:104AA000DF91CF911F910F91FF90EF90DF90CF900A
:104AB000BF90AF909F908F90089580E090E0FC01B0
:104AC000EE0FFF1FEE0FFF1FEE0FFF1FE80FF91F86
:104AD000EB5CFD4D108601968A30910581F70895B3
:104AE0007F928F929F92AF92BF92CF92DF92EF927E
:104AF000FF920F931F93CF93DF93AC0190913D22D0
:104B0000992391F021E030E0E901F901EE0FFF1F58
:104B1000EE0FFF1FEE0FFF1FE20FF31FEB5CFD4DCB
:104B200090859111EEC002C0C0E0D0E0762E4E011B
:104B3000880C991C880C991C880C991CC4018C0F3A
:104B40009D1F9C012B5C3D4D490181E0F90180874F
:104B50005283418388E08483608320918F22309147
:104B600090224091912250919222609193227091D3
:104B700094220F2EF0EDAF2EF02D0F2EF7E0BF2E6A
:104B8000F02DC12CD12CE12CF12C00E010E0809113
:104B90009522909196220E944A8C8CEF821BF40100
:104BA00086831782F1E07F1206C0F40188E28383D6
:104BB00088E0858395C022E0721210C0FE01EE0FDE
:104BC000FF1FEE0FFF1FEE0FFF1FEC0FFD1FEB5C33
:104BD000FD4D80E2838388E0858382C033E07312D9
:104BE00010C0FE01EE0FFF1FEE0FFF1FEE0FFF1FA5
:104BF000EC0FFD1FEB5CFD4D88E1838388E085832E
:104C00006FC084E0781215C00E94628D68E270E087
:104C10000E94FB8BFE01EE0FFF1FEE0FFF1FEE0F3A
:104C2000FF1FEC0FFD1FEB5CFD4D838388E0858348
:104C300057C0E5E07E123EC00E94628D68E270E0DF
:104C40000E94FB8BFE01EE0FFF1FEE0FFF1FEE0F0A
:104C5000FF1FEC0FFD1FEB5CFD4D83830E94628DF7
:104C60004C010E94628D940121703078332334F41A
:104C7000215031092E6F3F6F2F5F3F4F220F331F9F
:104C80002150310966E070E00E94FB8B829F200D6D
:104C90001124FE01EE0FFF1FEE0FFF1FEE0FFF1F8F
:104CA000EC0FFD1FEB5CFD4D278388E085838AEFC9
:104CB000868316C0711014C00E94628D68E270E095
:104CC0000E94FB8BFE01EE0FFF1FEE0FFF1FEE0F8A
:104CD000FF1FEC0FFD1FEB5CFD4D838388E0858398
:104CE000FE01EE0FFF1FEE0FFF1FEE0FFF1FEC0F79
:104CF000FD1FEB5CFD4D8681893F4CF488EF868378
:104D000006C02F5F3F4F2A30310509F0FDCEDF91FD
:104D1000CF911F910F91FF90EF90DF90CF90BF90B8
:104D2000AF909F908F907F90089580E090E060E535
:104D30009C01FC01EE0FFF1FEE0FFF1FEE0FFF1F88
:104D4000E80FF91FEB5CFD4D4085442309F46FC06B
:104D5000FC01EE0FFF1FEE0FFF1FEE0FFF1FE80F0E
:104D6000F91FEB5CFD4D418152817681470F511D4A
:104D700077FD5A955283418343815781450F438381
:104D80004381442394F4FC01EE0FFF1FEE0FFF1F3D
:104D9000EE0FFF1FE80FF91FEB5CFD4D43814195BE
:104DA000438347814195478320C0FC01EE0FFF1FDD
:104DB000EE0FFF1FEE0FFF1FE80FF91FEB5CFD4D1D
:104DC0004381493294F0FC01EE0FFF1FEE0FFF1FED
:104DD000EE0FFF1FE80FF91FEB5CFD4D4381562FCF
:104DE000541B5383478141954783F901EE0FFF1F01
:104DF000EE0FFF1FEE0FFF1FE20FF31FEB5CFD4DE9
:104E0000A181B281448150E0519541955109A41787
:104E1000B5076CF4F901EE0FFF1FEE0FFF1FEE0F49
:104E2000FF1F2E0F3F1FF901EB5CFD4D1086019611
:104E30008A30910509F07CCF0895AF92BF92CF924E
:104E4000EF92FF920F931F93CF93DF93C0E0D0E0D8
:104E50009E01FE01EE0FFF1FEE0FFF1FEE0FFF1F63
:104E6000EC0FFD1FEB5CFD4D8085882309F4F0C03D
:104E7000FE01EE0FFF1FEE0FFF1FEE0FFF1FEC0FE7
:104E8000FD1FEB5CFD4D81819281F82E882384F417
:104E9000FE01EE0FFF1FEE0FFF1FEE0FFF1FEC0FC7
:104EA000FD1FEB5CFD4D81819281182F1195F12C36
:104EB000F901EE0FFF1FEE0FFF1FEE0FFF1FE20FB6
:104EC000F31FEB5CFD4D80818130A9F4F901EE0FF9
:104ED000FF1FEE0FFF1FEE0FFF1F2E0F3F1FF901E9
:104EE000EB5CFD4D6381C12CE12E00E022E043E448
:104EF0008F2D48DAADC0F901EE0FFF1FEE0FFF1F37
:104F0000EE0FFF1FE20FF31FEB5CFD4D808182303F
:104F100089F45F016381C12CE12E00E022E043E4CB
:104F20008F2D30DAF5016381685F22E043E48F2D35
:104F300029DA8EC0F901EE0FFF1FEE0FFF1FEE0FF3
:104F4000FF1FE20FF31FEB5CFD4D80818330C1F446
:104F50005F016381C12CE12E00E022E043E48F2D4C
:104F600011DAF5016381685F22E043E48F2D0ADAEC
:104F7000F5016381605F22E043E48F2D03DA68C0AE
:104F8000F901EE0FFF1FEE0FFF1FEE0FFF1FE20FE5
:104F9000F31FEB5CFD4D80818430A9F4F901EE0F25
:104FA000FF1FEE0FFF1FEE0FFF1F2E0F3F1FF90118
:104FB000EB5CFD4D6381C12CE12E00E022E04EE66A
:104FC0008F2DE0D945C0F901EE0FFF1FEE0FFF1F37
:104FD000EE0FFF1FE20FF31FEB5CFD4D808185306C
:104FE000A9F4F901EE0FFF1FEE0FFF1FEE0FFF1FD9
:104FF0002E0F3F1FF901EB5CFD4D6381C12CE12EAB
:1050000000E022E04FE68F2DBDD922C0F901EE0F5E
:10501000FF1FEE0FFF1FEE0FFF1FE20FF31FEB5CF2
:10502000FD4D8081811114C0F901EE0FFF1FEE0FBD
:10503000FF1FEE0FFF1F2E0F3F1FF901EB5CFD4D11
:105040006381C12CE12E00E022E04AE68F2D9AD93F
:105050002196CA30D10509F0FBCEDF91CF911F9187
:105060000F91FF90EF90CF90BF90AF900895EF9287
:10507000FF920F931F93CF93DF9320E030E0082E31
:10508000000C990B062F062E000C110BE801279639
:10509000DC011796A901F901EE0FFF1FEE0FFF1FAC
:1050A000EE0FFF1FE20FF31FEB5CFD4D70857723C2
:1050B00009F497C0F901EE0FFF1FEE0FFF1FEE0F6F
:1050C000FF1FE20FF31FEB5CFD4D0180F281E02D2D
:1050D0008E179F07A4F0F901EE0FFF1FEE0FFF1FC1
:1050E000EE0FFF1FE20FF31FEB5CFD4DE180F2803E
:1050F0007481F701E70FF11D8E179F073CF1FA014C
:10510000EE0FFF1FEE0FFF1FEE0FFF1FE40FF51F47
:10511000EB5CFD4D0180F281E02DAE17BF070CF472
:1051200060C0FA01EE0FFF1FEE0FFF1FEE0FFF1F13
:10513000E40FF51FEB5CFD4DE180F2807481F70117
:10514000E70FF11DAE17BF070CF04BC0FA01EE0FD1
:10515000FF1FEE0FFF1FEE0FFF1FE40FF51FEB5CAD
:10516000FD4D73816717ACF0FA01EE0FFF1FEE0FD4
:10517000FF1FEE0FFF1FE40FF51FEB5CFD4D73816A
:10518000E581F0E0E70FF11D77FDFA950E171F0797
:1051900084F1FA01EE0FFF1FEE0FFF1FEE0FFF1F4E
:1051A000E40FF51FEB5CFD4DE3810E2E000CFF0BB1
:1051B000CE17DF07B4F0FA01EE0FFF1FEE0FFF1F4F
:1051C000EE0FFF1F4E0F5F1FFA01EB5CFD4D738169
:1051D000458150E0470F511D77FD5A95C417D507FB
:1051E00044F02F5F3F4F2A30310509F053CF80E064
:1051F00004C088E00E940F7681E0DF91CF911F917B
:105200000F91FF90EF9008957F928F929F92AF92AF
:10521000BF92CF92DF92EF92FF920F931F93CF93A3
:10522000DF934FE760E080E30E94B2174CE359E15F
:1052300060E080E10E94AD1A20918F22309190228F
:1052400040919122509192226091932270919422E8
:105250000F2EFAE0AF2EF02DB12CC12CD12CE12C69
:10526000F12C00E010E080919522909196220E940E
:10527000488C40E3420F60E08BE70E943219709047
:105280008F228090902290909122D0919222C09172
:105290009322B0919422F0919522E0919622272DAD
:1052A000382D492D5D2F6C2F7B2F8F2F9E2FA9E03E
:1052B0000E94FB8C59F050F00E944A8C0E94488C4E
:1052C00040E3420F60E085E70E94321970908F2220
:1052D0008090902290909122D0919222C09193221E
:1052E000B0919422F0919522E0919622272D382DAD
:1052F000492D5D2F6C2F7B2F8F2F9E2FA3E60E94B1
:10530000FB8CD1F0C8F00F2EF4E6AF2EF02DB12CAF
:10531000C12CD12CE12CF12C00E010E00E944A8C31
:105320000F2EFAE0AF2EF02D0E94488C40E3420F82
:1053300060E08FE60E94321980908F229090902238
:10534000D0919122C0919222B0919322A091942267
:10535000F0919522E0919622282D392D4D2F5C2F2A
:105360006B2F7A2F8F2F9E2F273E13E03107410599
:1053700051056105710581059105F1F0E8F00F2EE9
:10538000F8EEAF2EF02D0F2EF3E0BF2EF02DC12C36
:10539000D12CE12CF12C00E010E00E944A8C0F2E61
:1053A000FAE0AF2EF02DB12C0E94488C40E3420F62
:1053B00060E089E60E94321980908F2290909022BE
:1053C000D0919122C0919222B0919322A0919422E7
:1053D000F0919522E0919622282D392D4D2F5C2FAA
:1053E0006B2F7A2F8F2F9E2F2F3017E23107410519
:1053F00051056105710581059105E9F0E0F06894BA
:10540000AA24A4F80F2EF7E2BF2EF02DC12CD12C28
:10541000E12CF12C00E010E00E944A8C0F2EFAE003
:10542000AF2EF02DB12C0E94488C40E3420F60E07B
:1054300083E60E94321980908F2290909022D09122
:105440009122C0919222B0919322A0919422F09146
:105450009522E0919622282D392D4D2F5C2F6B2F10
:105460007A2F8F2F9E2F2F3916E8310711E0410731
:105470005105610571058105910501F1F8F00F2EC7
:10548000F0EAAF2EF02D0F2EF6E8BF2EF02DCC2433
:10549000C394D12CE12CF12C00E010E00E944A8C46
:1054A0000F2EFAE0AF2EF02DB12CC12C0E94488CAB
:1054B00040E3420F60E08DE50E94321980908F2218
:1054C00090909022D0919122C0919222B0919322FB
:1054D000A0919422F0919522E0919622282D392DC9
:1054E0004D2F5C2F6B2F7A2F8F2F9E2F2F3312E48F
:1054F00031071FE0410751056105710581059105DF
:1055000009F100F16894AA24A6F80F2EF2E4BF2E48
:10551000F02D0F2EFFE0CF2EF02DD12CE12CF12C11
:1055200000E010E00E944A8C0F2EFAE0AF2EF02D22
:10553000B12CC12C0E94488C40E3420F60E087E50B
:105540000E94321980908F2290909022D0919122C7
:10555000C0919222B0919322A0919422F091952231
:10556000E0919622282D392D4D2F5C2F6B2F7A2F0D
:105570008F2F9E2F2F3716E9310718E94107510564
:10558000610571058105910509F100F16894AA246E
:10559000A7F80F2EF6E9BF2EF02D0F2EF8E9CF2E2B
:1055A000F02DD12CE12CF12C00E010E00E944A8C6F
:1055B0000F2EFAE0AF2EF02DB12CC12C0E94488C9A
:1055C00040E3420F60E081E50E94321920918F2272
:1055D0003091902240919122509192226091932299
:1055E0007091942280919522909196222E3F304E78
:1055F000454F5540610571058105910539F030F041
:1056000043E459E160E08BE40E94AD1A4CE459E1B7
:1056100068E380E00E94AD1A00E020E04FE468E318
:1056200080E30E94C11F43E559E168E388E30E94DB
:10563000AD1ADF91CF911F910F91FF90EF90DF9006
:10564000CF90BF90AF909F908F907F9008952F92B2
:105650003F924F925F926F927F928F929F92AF9202
:10566000BF92CF92DF92EF92FF920F931F93CF934F
:10567000DF9310928F22109290221092912210921A
:1056800092221092932210929422109295221092BC
:10569000962281E08093040110DA80912901823002
:1056A00009F0D2C2212CC8E20E94211987E00E9491
:1056B0000116882319F0C8320CF087C281E00E94DD
:1056C0000116882321F00F2EFCE02F2EF02D85E00F
:1056D0000E94011681110E944816C20D6C2FC8321B
:1056E0000CF08BC27AC230908F2240909022509062
:1056F00091226090922270909322809094229090B8
:105700009522D0919622232D342D452D562D672D8F
:10571000782D892D9D2F233FE1E03E07410551055E
:10572000610571058105910509F010F50F2EFEE167
:10573000AF2EF02DB12CC12CD12CE12CF12C00E09E
:1057400010E00E94488CA0E00E94FB8C09F009C286
:105750000E94628D83709078992324F401978C6F56
:105760009F6F019661E0680F80E890E0B9D9F9C1B8
:10577000232D342D452D562D672D782D892D9D2FC8
:10578000273EE3E03E0741055105610571058105AE
:10579000910509F0A0F50F2EFEE1AF2EF02DB12CF2
:1057A000C12CD12CE12CF12C00E010E00E94488C9F
:1057B000A0E00E94FB8C99F00F2EFBE4AF2EF02DA1
:1057C000232D342D452D562D672D782D892D9D2F78
:1057D0000E94488CA0E00E94FB8C09F0C2C10E948C
:1057E000628D83709078992324F401978C6F9F6F5A
:1057F000019661E0680F80E890E072D9B2C1232D74
:10580000342D452D562D672D782D892D9D2F2F3C1C
:10581000E7E03E07410551056105710581059105E8
:1058200009F080F50F2EFEE1AF2EF02DB12CC12C2A
:10583000D12CE12CF12C00E010E00E94488CA0E07B
:105840000E94FB8C99F00F2EFBE4AF2EF02D232D40
:10585000342D452D562D672D782D892D9D2F0E9495
:10586000488CA0E00E94FB8C09F07BC10E94628DF5
:1058700065E070E00E94FB8B61E0680F80E890E0DB
:105880002FD96FC1232D342D452D562D672D782D01
:10589000892D9D2F273BEBE03E0741055105610512
:1058A00071058105910509F0F0F40F2EFFE0AF2E90
:1058B000F02DB12CC12CD12CE12CF12C00E010E00A
:1058C0000E94488CA0E00E94FB8C09F04AC10E9413
:1058D000628D65E070E00E94FB8B61E0680F80E8FC
:1058E00090E0FED83EC1232D342D452D562D672D39
:1058F000782D892D9D2F2F39EFE03E074105510569
:10590000610571058105910511F008F048C00F2E61
:10591000FFE0AF2EF02DB12CC12CD12CE12CF12CBD
:1059200000E010E00E94488CA0E00E94FB8C09F08F
:1059300018C10E94628D66E070E00E94FB8B892B8B
:1059400011F50E94628D63E070E00E94FB8B61E0C4
:10595000680F80E890E0C4D80E94628D63E070E038
:105960000E94FB8B61E0680F88E890E0B9D80E9444
:10597000628D63E070E00E94FB8B61E0680F80E95C
:1059800090E0AED8EEC00E94628D65E070E00E94AB
:10599000FB8B61E0680F80E890E0A2D8E2C0232D85
:1059A000342D452D562D672D782D892D9D2F273887
:1059B000E3E13E074105510561057105810591054A
:1059C00011F008F04CC00F2EFFE0AF2EF02DB12CDF
:1059D000C12CD12CE12CF12C00E010E00E94488C6D
:1059E000A0E00E94FB8C09F0BCC00E94628D63E0C5
:1059F00070E00E94FB8B892B11F50E94628D63E0A1
:105A000070E00E94FB8B61E0680F80E890E068D84E
:105A10000E94628D63E070E00E94FB8B61E0680F82
:105A200088E890E05DD80E94628D63E070E00E949B
:105A3000FB8B61E0680F80E990E052D892C00E9431
:105A4000628D83709078992324F401978C6F9F6FF7
:105A5000019662E0680F80E890E042D882C00F2E85
:105A6000FFE0AF2EF02DB12CC12CD12CE12CF12C6C
:105A700000E010E0232D342D452D562D672D782D77
:105A8000892D9D2F0E94488CA0E00E94FB8CD9F5A7
:105A90000E94628D63E070E00E94FB8B892B19F5F8
:105AA0000E94628D63E070E00E94FB8B61E0680FF2
:105AB00080E890E015D80E94628D63E070E00E945B
:105AC000FB8B61E0680F88E890E00AD80E94628D45
:105AD00063E070E00E94FB8B61E0680F80E990E07A
:105AE0000E94702510C00E94628D83709078992367
:105AF00024F401978C6F9F6F019662E0680F80E835
:105B000090E00E94702520918F2230919022409148
:105B100091225091922260919322709194220F2EA3
:105B2000FAE0AF2EF02DB12CC12CD12CE12CF12CB0
:105B300000E010E080919522909196220E94488C7E
:105B4000A0E00E94FB8C69F40E94628D66E070E028
:105B50000E94FB8B892B29F461E080E890E00E9491
:105B60007025E3D86AD950DB6C2F80E080DA811190
:105B70000E9489760E94AA1820918F22309190224B
:105B8000409191225091922260919322709194229F
:105B90008091952290919622A1E00E94E68C20931C
:105BA0008F223093902240939122509392226093BF
:105BB00093227093942280939522909396228091C1
:105BC0002901823009F470CD3FC089E00E940F7630
:105BD0000F2EF5EF2F2EF02D71CD239423948AE014
:105BE000821524F40F2EFAE02F2EF02D00E022E093
:105BF00043E180E00E94C11F76CD20918F22309139
:105C00009022409191225091922260919322709122
:105C100094220F2EF3E0AF2EF02DB12CC12CD12CFD
:105C2000E12CF12C00E010E08091952290919622D9
:105C30000E94488C40E1420F22E068E280E00E942E
:105C4000C11F212CC8E24FCDDF91CF911F910F9141
:105C5000FF90EF90DF90CF90BF90AF909F908F908C
:105C60007F906F905F904F903F902F9008951F927C
:105C70000F920FB60F9211248F938091C6008093DC
:105C8000A6228F910F900FBE0F901F9018951F9214
:105C90000F920FB60F9211248F9381E08093A4226C
:105CA0008091CE008093A3228F910F900FBE0F9012
:105CB0001F901895BF92CF92DF92EF92FF920F93B1
:105CC0001F93CF93DF9380912901843109F052C152
:105CD0000F2EF5E0EF2EF1E0FF2EF02DD12CB12CA0
:105CE000C12C0E942119F70182819381892B41F1F6
:105CF0000D2DCB2DDC2D1D2D183090F480919A2286
:105D0000C80FD11D87FDDA95CC0FDD1FCC0FDD1F2D
:105D1000CB5FDE4F48815981602F88E00E94AD1A29
:105D20001F5FC12FD0E0085FFE01EE0FFF1FEE0FD7
:105D3000FF1FEB5FFE4F22813381232BE9F602C068
:105D4000CB2DDC2D6091992280919A22681B660FE1
:105D5000660F660F4EE78D2D0E94321980919A22B0
:105D6000181634F440EE60E380E40E94321905C056
:105D700040E260E380E40E94321980919A22082E6A
:105D8000000C990B07968C179D070CF0DFC08091D3
:105D90009A22082E000C990B08968C179D070CF47C
