S0130000474C43445F53595354454D2E73726563B3
S2140000000C946C0D0C94960D0C94960D0C94960D09
S2140000100C94960D0C94960D0C94960D0C94960DCF
S2140000200C94960D0C94960D0C94960D0C94960DBF
S2140000300C94960D0C940F5A0C94960D0C94960DE9
S2140000400C94960D0C94960D0C94960D0C94960D9F
S2140000500C945A580C94960D0C94960D0C94960D80
S2140000600C94960D0C94960D0C94960D0C94960D7F
S2140000700C946A580C94960D0C94960D0C94960D50
S2140000800C94960D0C94960D0C94960DC87AE37A03
S214000090E37AE37AE37AE37AE37AE37AE37AE37A73
S2140000A0E37AE37AE37AE37AE37AE37AE37AE37A63
S2140000B0E37AE37AE37AE37AE37AE37AE37AE37A53
S2140000C0E37AE37AE37AE37AE37AE37AE37AE37A43
S2140000D0E37AE37AE37AE37AE37AE37AE37AE37A33
S2140000E0E37AE37AE37AE37AE37AE37AE37AE37A23
S2140000F0E37AE37AE37AE37AE37AE37AE37AE37A13
S214000100E37AE37AE37AE37AE37AE37AE37AE37A02
S214000110E37AE37AE37AE37AE37AE37AE37AE37AF2
S214000120E37ACE7AD17AD87ADB7ADE7AE37AE07A24
S214000130E37AE27AE37AD47AE37AD67AE37ACB7A07
S2140001400EAAF7AA94AA51AA1AAB0BAA15AB0FAB24
S214000150384482792579824438000000EA00909479
S2140001607E9C9000008C648CFEACA48C000000008A
S214000170000000000000000000000000000000007A
S2140001800000000000000000003844827D552982EF
S2140001904438000000147E94949460000040AE90B2
S2140001A092888A000020D2DA969260000000000052
S2140001B0000000000000000000000000000000003A
S2140001C0000000000000000000000000000000002A
S2140001D0708804FB2B13048870000000905010FCFD
S2140001E0185488000000102020202020200000083E
S2140001F088886C98040000000000000000000000E2
S21400020000000000000000000070880493AB4B0460
S214000210887000001010FC101050300000FC0080A9
S2140002204020000020100C8848380000FC202040A9
S21400023000000000000000000000000000000000B9
S21400024000000000000000000000000000000000A9
S2140002500000010202020100008040C0408001014F
S2140002600000000000000000000000000000000188
S2140002700000000001000000000000000000000078
S2140002800000000000000000000000010202020161
S2140002900000F0101010101111119150B0F1B15073
S2140002A090101010101111101010101011101010C6
S2140002B01010101010101010101010101010101039
S2140002C0101010101010101010101010101010F049
S2140002D0008040A0D010102E51A2435F43A2512EA2
S2140002E01010D0A040800000000000A0E0A040A0B9
S2140002F06000000000A0E0A040E040C00000000059
S21400030000000000000000000000000000000000E8
S2140003100000FFC0A0D0E888889728D1212F21D1DF
S21400032028978888E8D0A0C00000000000000000E1
S21400033000000000000000000000000000000000B8
S214000340008040404080384482792579824438FFD6
S2140003500003050B171111E9148B84F4848B14E940
S2140003601111170B05030000000000060F02090A12
S21400037005030000000B0F0B0807080F0000000025
S2140003800000000000000000000000000000000068
S2140003900000FF0102050B0808748A45C2FAC24530
S2140003A08A7408080B050201000070880492AA4AA5
S2140003B004887000708804FA2A1204887000000E00
S2140003C011205F554A20110E00010101000000FFB8
S2140003D00000000000000000010205070502010001
S2140003E00000000000000000000000000000000008
S2140003F000000000000000000000000000000000F8
S21400040000000000000000000000000000000000E7
S2140004100000070404040404040404050607060593
S2140004200404040404040404040404040506060680
S214000430050404040404050606060504040404046E
S2140004400404040404040404040404040404040764
S2140004500000000000000000000000000000000097
S2140004600000000000000000000000000000000087
S2140004700000000000000000000000000000000077
S2140004800000000000000000000000000000000067
S2140004900000000000000000000000000000000057
S2140004A00000000000000000000000000000000047
S2140004B00000000000000000000000000000000037
S2140004C00000000000000000000000000000000027
S2140004D00000000000000000000000000000000017
S2140004E00000000000000000000000000000000007
S2140004F000000000000000000000000000000000F7
S21400050000000000000000000000000000000000E6
S21400051000000000000000000000000000000000D6
S21400052000000000000000000000000000000000C6
S21400053000000000000000000000000000000000B6
S21400054000000000000000000000000000000000A6
S2140005500000000000000000000000000000000096
S2140005600000000000000000000000000000000086
S2140005700000000000000000000000000000000076
S2140005800000000000000000000000000000000066
S2140005900000000000000000000000000000000056
S2140005A00000000000000000000000000000000046
S2140005B00000000000000000000000000000000036
S2140005C00000000000000000000000000000000026
S2140005D01088483E569020008058483E56D08800E6
S2140005E08090C83ED61000009088483E5650CC00FA
S2140005F0002090563E4888100088D0563E485880C6
S214000600000010D63EC8908000CC50563E488890D9
S21400061000000000000000000000000000000000D5
S21400062000000000000000000000000000000000C5
S21400063000000000000000000000000000000000B5
S21400064000000000000000000000000000000000A5
S2140006500101000000010100010140A0400000006F
S214000660010000003F0302000100008080F8000047
S214000670000121408000010100000000303001012F
S2140006800000659D96B490010040A8FC6828C00153
S21400069000788000000870000020949494600000A9
S2140006A000905454B09000000048FC2820C8100069
S2140006B00010FC103890600000781048FC483000AD
S2140006C00040A07C48880000000808888870000069
S2140006D000000810101010100040A4FE543494605F
S2140006E0003CC080000004380000108A8A8A4A3025
S2140006F000884A2A6A9A88800044A4FE1490946867
S2140007000088681E8870043800005494969CB410C4
S2140007100000304844848200003E008888887E08B6
S214000720004084848484880000609494969C8400AE
S21400073000007E8080804020000414ACAC7E040460
S21400074000047E84849E84840010125AB6929080A0
S2140007500080641E449494900000041C9694946058
S2140007600004080884844830000404344C848282E0
S214000770006090968888800000241E44A4A07448D8
S214000780007C00408484848000609698681EC8F0D0
S214000790006414FE0844A478007088443C04887002
S2140007A000FC0040A4A47EC40004748E80403C0874
S2140007B0008060809A6420C000201804040810603E
S2140007C000FC0040AAAA7ECA0040AAAA7E4A8A0066
S2140007D0002052523E907810002454FE84808448B4
S2140007E000609698681E88700014147E949480604A
S2140007F00008FE08085C4830003C08A47E24241844
S2140008000040A0A07E44840000001C909292946059
S21400081000001E8080403E00000012CAAAD69260E9
S214000820006414FE08047C80000020929A96926071
S214000830006414FE0884847800E018166080804007
S214000840000408020400000000040A04000000007F
S21400085000C4241F2BC89000C0AC241F2B68440083
S214000860C048641FEB880000C844241F2B2866007D
S2140008700090C82B1F24C4880044682B1F24ACC0DB
S214000880000088EB1F6448C00066282B1F2444C85D
S2140008900000000000000000000000000000000053
S2140008A00000000000000000000000000000000043
S2140008B00000000000000000000000000000000033
S2140008C00000000000000000000000000000000023
S2140008D0008142241818244281FE12121E1212FEB3
S2140008E0002C233A2AFE2A2A20807E2A2A2AAAFEBA
S2140008F000FE9292929292FE007C547C086A2FFA36
S214000900281008947212F40810482AFE2A989E703E
S21400091018808C403E40908C00804828FE304884EA
S21400092000884828FE28488800A8E4AAFAAAE4A86E
S21400093000808888FE888880007C82AAA2AA827CA2
S214000940007CFED6DED6FE7C0055AA55AA55AA55D2
S2140009501C2241C141221C0000E71FEB0B070303CA
S21400096080473F2B6B07030320271F2BCB07030370
S21400097000477FEB0B070303679F6B8B07030300A0
S214000980809C7FEC2C1C0C0C9CFC6FAC1C0C0C0094
S2140009901C2271C97FFF7C0000E11FE100000000FF
S2140009A01C2261D1FFFE7C0000E11FE30000000076
S2140009B0C4A4F4AFB7E4A860C8A4F7AF547450302A
S2140009C0031BC4BA7A281C0CD0AAADAAF4A4E4600F
S2140009D00000000000000000000000000000000012
S2140009E00000000000000000000000000000000002
S2140009F000000000000000000000000000000000F2
S214000A0000000000000000000000000000000000E1
S214000A1000000000000000000000000000000000D1
S214000A2000000000000000000000000000000000C1
S214000A3000000000000000000000000000000000B1
S214000A4000000000000000000000000000000000A1
S214000A5080C0E0F0F800000080C0E0B0D8ACD6FF60
S214000A60FEBAD6EED6BAFE004078FCFEFC78400011
S214000A70C0C07E06C6C67E00C0C0C07E064C38001B
S214000A80F8888F81818F88F8FC86FD8585FD86FC39
S214000A9010F8ACFEACF81000F884F29191F284F8ED
S214000AA0C0C0FFC1C1FFC0C0F8F0FFFEF8FFE1F80C
S214000AB00000180018000000FC5AFD830FF226F80C
S214000AC0C728977D7D9728C70020977D7D972000B3
S214000AD04080C080C04080C01030509090A0C08041
S214000AE090D0FE3960C0C0603800383838381010F2
S214000AF00088DC7E3F19100070F8CCFECCF8700041
S214000B000000BCBFBC0000000000000000000000A9
S214000B10F07AEC78EC7AF000B8FC36FE36FCB800DA
S214000B2000040AFAAAA40000804020502808483092
S214000B3040205028483040800205040A140814104B
S214000B4008081418140A05020B150B150B150B15BF
S214000B500000000000000000FFFFFFFFFFFFFFFF98
S214000B60A28AA82AA28AA82AFFFFFFFFFFFFFFFF8C
S214000B70191513111315191191A9C58383C5A991C8
S214000B8022111122224444226633336666CCCC6698
S214000B90EEEEEE00EEEEEE00E0FEF880E0FEF88010
S214000BA0077F1F01077F1F01FC9292AA9292FC000A
S214000BB0383838FE7C38100010387CFE383838005C
S214000BC01018FCFEFC18100010307EFE7E30100060
S214000BD03E41414F49413E0081F6EE9EC0F6F67F0B
S214000BE07E8185D3DB8D817E7E81BD858585C17EB8
S214000BF0003E7F5D633E00007F41C14141417FC1B1
S214000C00417FC141FFC17F7F0000FF00000000FF61
S214000C100000FF00FFFF00003E1C7CDC7C1C3E004A
S214000C2082FEFEFEAA381000F8707C767C70F80013
S214000C301038AAFEFEFE82004242DBDBFFFFE7C35F
S214000C4066FFC35A5AC3FF66183CA5FFE7FF663C1B
S214000C500000182424180000003C664242663C004F
S214000C6018665285A14A6618669989624691996601
S214000C70669181024081896600665204204A6600B9
S214000C8000245204204A24000020120420480400B5
S214000C901E7C78783830301000300030303000005D
S214000CA01C3E7EFC7E3E1C001E73337F33731E008C
S214000CB0446C7E3F7E6C440070F8FCFA72020400BE
S214000CC0180C0EF87C0E1B095474567D567454008E
S214000CD000387C423E1C000000047C3E0000000001
S214000CE04462725E4C00000024424A7E34000000DB
S214000CF030287C7E200000004E4E4A7A32000000EB
S214000D00307C4E4A300000000666160E06000000D4
S214000D1020744A5A36000000085C321E0C000000A0
S214000D20C3810000000081C30066420000426600E6
S214000D30382C2426223391D1D19332E24341E33E2C
S214000D401C34246444CC898B8BC94C47C282C77C34
S214000D50FE3F783E3E783FFE88DC76FFFF76DC88F6
S214000D60B68AA82AB68AA82AFC9292BA9292FC0060
S214000D70FFA5FFBDBDFFA5FFE0FEF880E0FEF88002
S214000D80E010E8747AFD7D25257DFD7A74E810E094
S214000D9000006070687CBC4040BC7C6870600000EE
S214000DA01C86427A0FFB0FFF0FFB0F7A42861C0051
S214000DB0000000F0B8BCFCFCFCFCFCBCB8F000007A
S214000DC00000E058AC56EA75EB151FFFFB9F1E3C73
S214000DD01C3E7FFF7F3E1C0040808080808080001D
S214000DE090F4EC98F1E7FEF88080621F23C30301BD
S214000DF0A060D028140A06003878F8ECE7F0781FD0
S214000E000708172E5EBFBEA4A4BEBF5E2E17080737
S214000E100000060E163E3D02023D3E160E0600007F
S214000E200301003C07013E073E01073C00010300AA
S214000E30000000070F1F1D1B1B1B1D1F0F070000B8
S214000E400000232D3A2F3B08090E1F3528312100BC
S214000E508080621F23C30101050202020202020112
S214000E60243494D47C3C1C0C8080423F438E0E1667
S214000E702850A0C0000000003870E0C0C0C060303D
S214000E805030F87C0EFF7F5030781C0E071F0F0086
S214000E90000EE11FE10A0C16804E213F216A0C1657
S214000EA0404E611F21CA0C16000E417FE10A0C1647
S214000EB0001C02C77A448870F0A0A0A0A0A0A040A2
S214000EC048E8E8F8F0F0E0400404040404040404ED
S214000ED0000EE11FE1060000804E213F2166000063
S214000EE0404E611F21C60000000E417FE106000053
S214000EF002619F63840000008661191711E10202F7
S214000F008C621D1311E10101C221110F3BC10000CB
S214000F101ED9A11FE1991E00DE59213F21795E00EE
S214000F207E39211F21D99E001E19417FE1991E009E
S214000F3003CFAD1FE38F0C00000000000080C0C090
S214000F40040415151F1F1F1F0404041F0E0E04049F
S214000F50000000000000000000000000000000008C
S214000F60000000000000000000000000000000007C
S214000F70000000000000000000000000000000006C
S214000F800000000000000000824121130D11E10066
S214000F90000000000000000000000000000000004C
S214000FA00CCE2119171121C101030707000000000C
S214000FB01C1A01010101020242627D0101010101C8
S214000FC00A040A040A040A0404040E111B1B15046E
S214000FD0000000000000000000000000000000000C
S214000FE000000000000000000000000000000000FC
S214000FF000000000000000000000000000000000EC
S21400100000000000000000000000000000000000DB
S21400101000000000000000000000000000000000CB
S21400102000000000000000000000000000000000BB
S2140010301C2241C141FF1F181EF10F051C000000B5
S21400104081FF7E3C0000000004040E110A0A04041E
S214001050000000000000000000000000000000008B
S214001060000000000000000000000000000000007B
S214001070000000000000000000000000000000006B
S214001080000000000000000000000000000000005B
S214001090000000000000000000000000000000004B
S2140010A0000000000000000000000000000000003B
S2140010B0000000000000000000000000000000002B
S2140010C0243C3C180000000004040E1B0A0A04041A
S2140010D0000000000000000000000000000000000B
S2140010E000000000000000000000000000000000FB
S2140010F000000000000000000000000000000000EB
S21400110000000000000000000000000000000000DA
S21400111000000000000000000000000000000000CA
S21400112000000000000000000000000000000000BA
S21400113000000000000000000000000000000000AA
S214001140000000000000000000000000000000009A
S214001150FDF5004025B953054DD4009042367E0576
S214001160FF55E1F8434812040955029242943B00A9
S214001170F9750A4425B81604299B57BF6501FF7FF9
S2140011803D1BB564DB4A6D493F1D9D76F9037F7EA6
S2140011902D5BB564DB4A691AECAB77BCF51A7F7E2B
S2140011A02000AD7EDBF6B37C2080E64CDB566C5B25
S2140011B0F3004494F456765D6C09E4A47A55E95934
S2140011C0F3744CBE5A49EE780020010020045410F7
S2140011D06D7B76162A42AC1E6A2BB9EDAF06DE3B57
S2140011E07AAB706E2B478D5CAD363354AB4EB53E46
S2140011F0000000000000D600000000000000925E24
S2140012000000000000001153000000000000922CB7
S214001210000000000000D64E000000000000004F56
S21400122000000007000700147F147F14242A7F2A7A
S2140012301263130864623649552250000503000005
S214001240001C2241000041221C0014083E0814081D
S214001250083E08080050300000080808080800602B
S21400126060000020100804023E5149453E00427FBF
S214001270400042615149462141454B311814127FC6
S2140012801027454545393C4A49493001710905034F
S2140012903649494936064949251E003636000000BB
S2140012A05636000008142241001414141414004189
S2140012B02214080201510906324979413E7E212155
S2140012C0217E7F494949363E414141227F414122A4
S2140012D01C7F494949417F090909013E4149497A2C
S2140012E07F0808087F00417F41002040413F017F82
S2140012F0081422417F404040407F0204027F7F0462
S21400130008107F3E4141413E7F090909063E415192
S214001310215E7F09192946464949493101017F0165
S214001320013F4040403F1F2040201F3F4038403F85
S21400133063140814630708700807615149454300A1
S2140013407F41410015167C16150041417F000402BE
S2140013500102044040404040000102040020545472
S21400136054787F48444438384444442038444448F9
S2140013707F3854545418087E0901020C5252523ECB
S2140013807F0804047800447D40002040443D007FF0
S2140013901028440000417F40007C041804787C0834
S2140013A004047838444444387C141414080814148C
S2140013B0187C7C080404084854545420043F4440D5
S2140013C0203C4040207C1C2040201C3C4030403CC0
S2140013D044281028440C5050503C4464544C44005C
S2140013E00836410000007F000000413608003E3EFF
S2140013F01C0800081C2A0808000000000070507036
S214001400000000000F01014040780000102040005E
S2140014100000181800000A0A4A2A1E044434140C55
S214001420201078040018084C48384848784848483F
S21400143028187C08087C04281840484878405454EB
S21400144054547C1800584038080808080801413DE4
S214001450090710087C02010E0243221E42427E4209
S2140014604222120A7F02423F02423E0A0A7F0A0ACC
S214001470084642221E0403423E02424242427E0286
S2140014804F221F024A4A40201C4222122A46023F8E
S214001490424A46064840403C08464A321E0A4A3EF1
S2140014A009080E004E201E04453D0504007F081066
S2140014B00044241F04044042424240422A122A06A4
S2140014C022127B16220040201F0078000204783F7C
S2140014D044444444024242221E04020408303202BB
S2140014E07F0232021222520E002A2A2A4038242272
S2140014F0207040281028060A3E4A4A4A047F0414F0
S2140015000C4042427E404A4A4A4A7E040545251C13
S2140015100F40201F007C007E40307E402010087E5A
S2140015204242427E0E0242221E42424020180204DE
S2140015300102000705070000607078706003070F5F
S2140015400703004002400340054006400840093FAC
S2140015500B3F0C3F0E3E103E113E133D143D163C15
S214001560173C183B1A3B1B3A1D391E3820382137CA
S2140015702236243525342633273229312A302B2F9C
S2140015802C2E2D2D2E2C2F2B302A31293227332688
S21400159034253524362237213820381E391D3A1B8B
S2140015A03B1A3B183C173C163D143D133E113E10AB
S2140015B03E0E3F0C3F0B3F094008400640054003E7
S2140015C04002400040FE40FD40FB40FA40F83FF736
S2140015D03FF53FF43EF23EF03EEF3DED3DEC3CEA9B
S2140015E03CE93BE83BE63AE539E338E238E037DF0A
S2140015F036DE35DC34DB33DA32D931D730D62FD588
S2140016002ED42DD32CD22BD12AD029CF27CE26CDFF
S21400161025CC24CB22CA21C920C81EC81DC71BC67C
S2140016201AC518C517C416C414C313C311C210C2F2
S2140016300EC20CC10BC109C108C006C005C003C05C
S21400164002C000C0FEC0FDC0FBC0FAC0F8C0F7C1B3
S214001650F5C1F4C1F2C2F0C2EFC2EDC3ECC3EAC4F6
S214001660E9C4E8C5E6C5E5C6E3C7E2C8E0C8DFC921
S214001670DECADCCBDBCCDACDD9CED7CFD6D0D5D12F
S214001680D4D2D3D3D2D4D1D5D0D6CFD7CED9CDDA23
S214001690CCDBCBDCCADEC9DFC8E0C8E2C7E3C6E500
S2140016A0C5E6C5E8C4E9C4EAC3ECC3EDC2EFC2F0C0
S2140016B0C2F2C1F4C1F5C1F7C0F8C0FAC0FBC0FD64
S2140016C0C0FEC000C002C003C005C006C008C109F5
S2140016D0C10BC10CC20EC210C211C313C314C41670
S2140016E0C417C518C51AC61BC71DC81EC820C921E1
S2140016F0CA22CB24CC25CD26CE27CF29D02AD12B43
S214001700D22CD32DD42ED52FD630D731D932DA33AA
S214001710DB34DC35DE36DF37E038E238E339E53A0D
S214001720E63BE83BE93CEA3CEC3DED3DEF3EF03E77
S214001730F23EF43FF53FF73FF840FA40FB40FD40ED
S214001740FE4000010304050608090A0B0C0D0F10E5
S214001750111213141516171819191A1B1C1D1D1E05
S2140017601F1F200040024003400540064008400975
S2140017703F0B3F0C3F0E3E103E113E133D143D16F0
S2140017803C173C183B1A3B1B3A1D391E38203821A3
S214001790372236243525342633273229312A302B72
S2140017A02F2C2E2D2D2E2C2F2B302A31293227335D
S2140017B02634253524362237213820381E391D3A5E
S2140017C01B3B1A3B183C173C163D143D133E113E7E
S2140017D0103E0E3F0C3F0B3F0940084006400540B8
S2140017E0034002400040FE40FD40FB40FA40F83F08
S2140017F0F73FF53FF43EF23EF03EEF3DED3DEC3C6C
S214001800EA3CE93BE83BE63AE539E338E238E037DC
S214001810DF36DE35DC34DB33DA32D931D730D62F5B
S214001820D52ED42DD32CD22BD12AD029CF27CE26D5
S214001830CD25CC24CB22CA21C920C81EC81DC71B53
S214001840C61AC518C517C416C414C313C311C210CC
S214001850C20EC20CC10BC109C108C006C005C00338
S214001860C002C000C0FEC0FDC0FBC0FAC0F8C0F792
S214001870C1F5C1F4C1F2C2F0C2EFC2EDC3ECC3EAD7
S214001880C4E9C4E8C5E6C5E5C6E3C7E2C8E0C8DF04
S214001890C9DECADCCBDBCCDACDD9CED7CFD6D0D515
S2140018A0D1D4D2D3D3D2D4D1D5D0D6CFD7CED9CD0A
S2140018B0DACCDBCBDCCADEC9DFC8E0C8E2C7E3C6E9
S2140018C0E5C5E6C5E8C4E9C4EAC3ECC3EDC2EFC2A9
S2140018D0F0C2F2C1F4C1F5C1F7C0F8C0FAC0FBC04F
S2140018E0FDC0FEC000C002C003C005C006C008C1DF
S2140018F009C10BC10CC20EC210C211C313C314C45B
S21400190016C417C518C51AC61BC71DC81EC820C9C9
S21400191021CA22CB24CC25CD26CE27CF29D02AD12A
S2140019202BD22CD32DD42ED52FD630D731D932DA90
S21400193033DB34DC35DE36DF37E038E238E339E5F2
S2140019403AE63BE83BE93CEA3CEC3DED3DEF3EF059
S2140019503EF23EF43FF53FF73FF840FA40FB40FDCD
S21400196040FE40080A02080A02080A023C0A020868
S21400197026020826020826023C26022A08012A1009
S214001980012A20012A1801140A021426021414023D
S214001990141C02141E023A1202080A02080A02085E
S2140019A00A021E0A023C140108260208260208261D
S2140019B0021E26023C1401501803FF00001D02FF01
S2140019C00000000000000000000000000000000012
S2140019D00027011D011301FF0000000000000000A9
S2140019E0000000000013011D012701FF0000000099
S2140019F00000000000000000009F0100019F02FFA1
S214001A000000000000000000000000000027014F5A
S214001A10019F01FF00000000000000000000000021
S214001A20003F014F011F0127010F011301FF0000B6
S214001A30000000000016011701FF00000000000073
S214001A40000000000000000000130115011701133C
S214001A5001FF000000000000000000000077019F6A
S214001A600127013B014F017701FF00000000000045
S214001A70004F014B01470143013F013B01FF0000BE
S214001A8000000000001F011705FF00000000000016
S214001A9000000000000000000077017E019F01FFAB
S214001AA00000000000000000000000000077035E59
S214001AB0033B0323031F032F03FF00000000000067
S214001AC000470A470A470A230AFF000000000000F2
S214001AD0000000000000E92811241FBECFEFD0E46C
S214001AE0DEBFCDBF1EE1A0E0B1E0EAE4FAE801E027
S214001AF00BBF02C007900D92AC39B107D9F724E3AB
S214001B00ACE9BEE101C01D92A634B207E1F71DE0C4
S214001B10CCE6DDE004C02197FE010E94C9C3CB36A7
S214001B20D107C9F70E94415A0C9423C50C947D58DE
S214001B30FC011182108213861286168683E0818746
S214001B40838312821782108608950F93CF93DF93B4
S214001B50EC01198218821B861A861E8683E0898706
S214001B608B831A821F8218866C8749873D832C8355
S214001B70088B0E94E9C483709078992324F4019717
S214001B808C6F9F6F01968295807F898BDF91CF91B6
S214001B900F910895FF920F931F93CF93DF93EC015D
S214001BA08985833031F0898511E0882319F010E0AB
S214001BB001C010E08C85813009F052C048896E81E2
S214001BC08C819D81012F22E00E9482498A858111A5
S214001BD009C06E818C819D81685F22E041E00E9491
S214001BE0824951C48A85813051F46E818C819D81F1
S214001BF0685F012F22E042E00E94824944C48A8541
S214001C00823051F46E818C819D81685F012F22E0C5
S214001C1043E00E94824937C48A85833051F46E813E
S214001C208C819D81685F012F22E044E00E948249FA
S214001C302AC48A85853021F48B85823009F410C445
S214001C408A85863021F48B85843009F409C48A8518
S214001C50843009F00FC48B85873009F00BC400C4AC
S214001C608C85811137C148896E818C819D81012FB9
S214001C7022E00E9482498A85843008F041C08A8525
S214001C80811109C06E818C819D81685F22E048EADF
S214001C900E94824926C08A85813051F46E818C81EB
S214001CA09D81685F012F22E049EA0E94824919C09F
S214001CB08A85823051F46E818C819D81685F012F08
S214001CC022E04AEA0E9482490CC08A85833049F4A1
S214001CD06E818C819D81685F012F22E04BEA0E9415
S214001CE082496E818C819D81685F885F012F22E02A
S214001CF044EA90EF199F800D11240E948249C3C3C5
S214001D008A85873019F08A858B30F1F56E818C8153
S214001D109D81685F012F22E040EA0E9482496E8121
S214001D208C819D8190EF199FF02C1124885F22E012
S214001D3041E98F0D0E9482496E818C819D81685F8A
S214001D40885F22E041EA8F0D0E9482498A858730AB
S214001D5059F46E818C819D816A5F885F22E042EA39
S214001D608F0D0E9482498FC38A858B3009F08BC302
S214001D706E818C819D816F5F885F012F22E042E932
S214001D808F0D0E9482497FC38A85883031F08A850C
S214001D90893019F08A858A3091F56E818C819D8113
S214001DA0685F012F22E043E90E9482496E818C81A0
S214001DB09D8190EF199FF02C1124885F22E044E962
S214001DC08F0D0E9482498A85883051F46E818C81FD
S214001DD09D81885F22E046EA8F0D0E94824953C3A8
S214001DE08A85893009F04FC36E818C819D81885F1A
S214001DF0012F22E047EA8F0D0E94824944C38A855C
S214001E008C3031F08A858D3019F08A858E30A9F5B0
S214001E106E818C819D81685F012F22E043EA0E94DB
S214001E2082496E818C819D8190EF199FF02C112440
S214001E30685F885F22E044EA8F0D0E9482498A85A7
S214001E408C3059F46E818C819D81685F885F22E0BA
S214001E5045E98F0D0E94824916C38A858D3009F0A8
S214001E6012C36E818C819D81685F885F012F22E09E
S214001E7045EA8F0D0E94824906C38A858F3021F07D
S214001E808A85803109F0FFC26E818C819D81685FF2
S214001E90012F22E04CEA0E9482496E818C819D814E
S214001EA090EF199FF02C1124685F885F22E04DEABE
S214001EB08F0D0E9482498A858F3009F0E4C26E81B8
S214001EC08C819D81685F885F22E04EEA8F0D0E94BC
S214001ED08249D9C28C85823009F0E7C148896E8173
S214001EE08C819D81012F22E00E9482498A85843060
S214001EF008F04AC08A85811109C06E818C819D8157
S214001F00685F22E040EB0E94824926C08A858130C5
S214001F1051F46E818C819D81685F012F22E041EB38
S214001F200E94824919C08A85823051F46E818C8164
S214001F309D81685F012F22E042EB0E9482490CC01F
S214001F408A85833049F46E818C819D81685F012F7C
S214001F5022E043EB0E9482496E818C819D81685FFE
S214001F60012F22E04FEA0E94824949896E818C81C6
S214001F709D814154685F885F22E090EF199F800D35
S214001F8011240E9482497FC28A85813191F08A8518
S214001F90853179F08A85823161F08A85863149F00B
S214001FA08A858F3131F08A85803219F08A858132B0
S214001FB049F56E818C819D81685F012F22E044EB9C
S214001FC00E9482496E818C819D81685F8450912F2A
S214001FD0990F990F990F22E04FEA890F0E948249C4
S214001FE049896E818C819D814154685F94E0980F89
S214001FF0812F8195880F880F880F22E0890F0E9415
S214002000824941C28A85823231F08A85833219F04C
S2140020108A85843201F56E818C819D81685F012FEF
S21400202022E047EC0E9482496E818C819D81685F28
S214002030885022E04FEA90E1199F800D11240E94FB
S214002040824949896E818C819D814154685F22E076
S2140020500E94824918C28A85863219F08A8587329C
S21400206051F46E818C819D81685F012F22E046EBE2
S2140020700E94824908C28A85833131F08A85893177
S21400208019F08A858532A9F56E818C819D81685FFD
S214002090012F22E045EB0E9482496E818C819D8152
S2140020A0685F94E0980F812F8195880F880F880FBE
S2140020B022E04FEA890F0E9482496E818C819D81C1
S2140020C0685F885F22E04EEB90EF199F800D112429
S2140020D00E94824949896E818C819D814154685F46
S2140020E0845F22E098E1199F801911240E9482499A
S2140020F0CAC18A85843119F08A858E3141F56E8190
S2140021008C819D81685F012F22E045EB0E94824909
S2140021106E818C819D81685F94E0980F812F8195F8
S214002120880F880F880F22E04FEA890F0E948249A5
S21400213049896E818C819D814154685F845F22E06D
S21400214098E1199F801911240E9482499CC18A85B2
S214002150873119F08A85883159F56E818C819D8189
S214002160685F012F22E047EB0E9482496E818C81D6
S2140021709D81685F99EF980F212F220F822F880F7D
S214002180880F880F821B22E04FEA890F0E9482493F
S21400219049896E818C819D814154685F91E0980FDA
S2140021A0812F8195880F22E0890F0E9482496BC19A
S2140021B08A858A3151F08A858B3139F08A858C314F
S2140021C021F08A858D3109F05EC16E818C819D81FA
S2140021D0685F012F22E046EB0E9482498A858A3199
S2140021E049F56E818C819D816A5F885F22E04FEAA7
S2140021F090EF199F800D11240E94824949896E81B3
S2140022008C819D8141546A5F805F22E090EE199F29
S214002210800D11240E9482496E818C819D816A5FA7
S214002220845F22E04EEB98E1199F801911240E94EA
S214002230824929C16E818C819D816A5F885F012FEA
S21400224022E04EEC90EF199F800D11240E948249E7
S2140022506E818C819D816A5F805F22E04FEA90EEFE
S214002260199F800D11240E94824949896E818C81B4
S2140022709D8141546A5F885E22E090E3199F801931
S21400228011240E9482498A858B3109F0FCC06E8138
S2140022908C819D816A5F8D5E22E04EEB96E2199FEF
S2140022A0801911240E948249EEC08C85833009F083
S2140022B0EAC08A858430E0F548896E818C819D81EC
S2140022C0012F22E00E9482498A85811109C06E8111
S2140022D08C819D81685F22E048EB0E948249D3C0D2
S2140022E08A85813051F46E818C819D81685F012FD3
S2140022F022E049EB0E948249C6C08A85823051F4AA
S2140023006E818C819D81685F012F22E04AEB0E94DE
S2140023108249B9C08A85833009F0B5C06E818C8148
S2140023209D81685F012F22E04BEB0E948249ABC083
S2140023308A858832C1F58B85813021F548896E8182
S2140023408C819D818D5F912F990F910F990F012F91
S21400235022E0891B0E9482496E818C819D81685F84
S21400236022E04AEC0E9482496E818C819D81685FE2
S214002370885F22E04BEC90EF199F800D11240E949D
S214002380824981C048896E818C819D81012F22E01F
S2140023900E9482496E818C819D81685F22E048EBB5
S2140023A00E94824970C08A85893219F08A858C32EB
S2140023B041F548896E818C819D81012F22E00E9423
S2140023C082496E818C819D81685F22E04CEC0E9480
S2140023D082496E818C819D8190EF199FF02C11248B
S2140023E0885F22E04DEB8F0D0E9482496E818C81C2
S2140023F09D81685F885F22E04DEC8F0D0E948249C8
S21400240042C08A858B3289F448896E818C819D8191
S214002410012F22E00E9482496E818C819D81685F37
S21400242022E04CEB0E9482492EC08A858A3259F5FA
S21400243048896E818C819D81012F22E00E9482490D
S2140024406E818C819D8122E04CED0E9482496E81D6
S2140024508C819D81685F22E04DED0E94824913C009
S2140024606E818C819D81685F012F22E045E00E948D
S214002470824909C06E818C819D81685F012F22E0B0
S21400248041E00E948249DF91CF911F910F91FF900A
S2140024900895FC018681082E000C990B4096C8977B
S2140024A00CF4ADC08681082E000C990B4096C89798
S2140024B08CF084819581079640970CF4A0C08481A7
S2140024C09581803791050CF09AC004C081E086871C
S2140024D085E0858784819581813F9F4F5CF084816C
S2140024E095818639910534F48681813F1CF086817A
S2140024F08035A4F0168681E08283838181508383B1
S2140025008381811102C082E082838CE390E0958310
S2140025108483168217821086118210828085181690
S2140025200CF053C08085082E000C990B99231CF4E0
S214002530919581959109181619060CF046C020E071
S21400254030E040E08681280F311D87FD3A9528321D
S214002550310549F5848195812781820F911D27FDDC
S2140025609A9541975CF0848195812781820F911D11
S21400257027FD9A958F3691050CF446C08481958187
S2140025802781820F911D27FD9A95089641975CF04A
S214002590848195812781820F911D27FD9A95089643
S2140025A08F3691058CF14F5F242F042E000C330BD1
S2140025B08085082E000C990B99231CF49195819523
S2140025C09109281739070CF4BDCF80852681082E7F
S2140025D0000C990B820F911D27FD9A958683278103
S2140025E084819581820F911D27FD9A95958384831A
S2140025F0878188230CF48F5F859587830895868569
S214002600882309F463CF64CF168615864087DDCF0E
S2140026102F923F924F925F926F927F928F929F92ED
S214002620AF92BF92CF92DF92EF92FF920F931F93DB
S214002630CF93DF936C01C0E0D0E0A12CB12C1BE05F
S214002640712C00E06894662461F80F2EFEE12F2EB0
S214002650312CF02D0F2EF7EE8F2EF3E09F2EF02D5F
S2140026606894442442F8512C7E011C9FF0011D9F63
S214002670F00D1124EC53F14E8285882309F4B5C180
S2140026801C9FF0011D9FF00D1124EC53F14E80812C
S21400269091814481F60124813581840F911D821732
S2140026A09307A4F01C9FF0011D9FF00D1124EC531E
S2140026B0F14E208131814481F60184819581240F79
S2140026C0311D0896281739070CF495C11E9DF00198
S2140026D01F9DF00D1124EC53F14E20813181F6013F
S2140026E084819581281739070CF47FC11E9DF0015F
S2140026F01F9DF00D1124EC53F14E20813181F6011F
S214002700848195810896281739070CF474C16DC129
S2140027101E9DF0011F9DF00D1124EC53F14E2281F9
S21400272033819581F6018681290F311D082E000C14
S214002730990B4096281739070CF473C11E9DF001BB
S2140027401F9DF00D1124EC53F14E22813381F601CA
S2140027508681082E000C990B281739070CF445C102
S2140027601E9DF0011F9DF00D1124EC53F14E2281A9
S2140027703381F6018681082E000C990B40962817A7
S21400278039070CF44EC131C11E9DF0011F9DF00D9E
S2140027901124EC53F14E8085833009F491C01E9DC0
S2140027A0F0011F9DF00D1124EC53F14E8085823010
S2140027B021F4F8E0AF0EB11C8BC01E9DF0011F9DEA
S2140027C0F00D1124EC53F14E8085843021F426E080
S2140027D0A20EB11C7DC01E9DF0011F9DF00D1124A0
S2140027E0EC53F14E8085853021F486E0A80EB11CAE
S2140027F06FC01E9DF0011F9DF00D1124EC53F14E8D
S2140028008085863061F4E6E0AE0EB11C1E9DF001B8
S2140028101F9DF00D1124EC53F14E178259C01E9DDA
S214002820F0011F9DF00D1124EC53F14E808587308A
S21400283021F4F4E0AF0EB11C4BC01E9DF0011F9DAD
S214002840F00D1124EC53F14E8085883021F425E0FC
S214002850A20EB11C3DC01E9DF0011F9DF00D11245F
S214002860EC53F14E8085893021F488E0A80EB11C27
S2140028702FC01E9DF0011F9DF00D1124EC53F14E4C
S21400288080858A3079F4F6018081918118161906C0
S214002890FCF4FAE0AF0EB11CF60110868085855078
S2140028A0808716C01E9DF0011F9DF00D1124EC536D
S2140028B0F14E80858B3061F4F3E0AF0EB11C08C09A
S2140028C00F2EF6E0AF2EF02DB12C02C0A42CB52CA6
S2140028D0F60182858B3209F0B0C0838583300CF018
S2140028E0B2C0ABC0F601838583300CF0B0C08081E7
S2140028F09181A80EB91EB182A082A9C0F60180817E
S21400290091818A0D9B1D918380831A141B041CF4ED
S214002910812F0E9448A1F5E0AF16B1040CF44AC01E
S214002920F601668684858230D1F41E9DF0011F9DD7
S214002930F00D1124EC53F14E4781F6018081918110
S2140029402085022E000C330B68E270E00E9494C3D0
S214002950640F711D47FD7A95261B370B2087F601FD
S2140029608485833071F4808191812085022E000C4D
S214002970330B64E170E00E9494C3261B370B20875C
S21400298019C01E9DF0011F9DF00D1124EC53F14E51
S2140029904781F601808191812085022E000C330B41
S2140029A0B1010E9494C3640F711D47FD7A95261BE2
S2140029B0370B20871E9DF0011F9DF00D1124EC5350
S2140029C0F14E8085813041F01E9DF0011F9DF00D77
S2140029D01124EC53F14E1286F60180819181883ED7
S2140029E093401CF0F601918280822196C431D10575
S2140029F009F03ACE2FC01E9DF0011F9DF00D112448
S214002A00EC53F14E228133819581F6018681290FA0
S214002A10311D082E000C990B281739070CF078CEBC
S214002A208DCE1E9DF0011F9DF00D1124EC53F14E2E
S214002A308085882309F44ACFA7CEF60182858C329A
S214002A4009F05CCF4FCFF601828527E02387A72CBD
S214002A50B02EB0CFDF91CF911F910F91FF90EF90E6
S214002A60DF90CF90BF90AF909F908F907F906F90A9
S214002A705F904F903F902F9008952FE34FE668E3C6
S214002A8080E10E94A2412EE34EE669E381E10C94C8
S214002A90A241089580E090E02BE0289FF001299F56
S214002AA0F00D1124EC53F14E118210821382128223
S214002AB01482158216821782108611861286019657
S214002AC08431910551F708954F925F926F927F92ED
S214002AD08F92AF92CF92EF920F93CF93DF93CDB7B3
S214002AE0DEB72C018091CE1E882381F0E1E0F0E075
S214002AF03BE03F013E9FD0013F9FB00D1124AC53F9
S214002B00B14E1A969C91911117C002C0612C712C7F
S214002B108BE0869DF001879DF00D1124EC53F14E5D
S214002B205182408273836283448325830683E782CF
S214002B30C0868186A28604C03196E431F105C9F6C6
S214002B40DF91CF910F91EF90CF90AF908F907F90C5
S214002B506F905F904F9008956F927F928F92AF9292
S214002B60CF92EF92FF920F931F93CF93DF93EC01D8
S214002B70162F062F017060FF72C58B85882309F417
S214002B8071C56DC581E08A872BC08A85823019F4AD
S214002B9083E08A8725C08A85833019F481E08A8796
S214002BA01FC08A858130E1F482E08A8719C08B8550
S214002BB0882309F460C514C081E08A8711C08A851D
S214002BC0823019F483E08A870BC08A85833019F433
S214002BD081E08A8705C08A85813011F482E08A8781
S214002BE08A85843008F48E858C85823039F48F810E
S214002BF088230CF48F5F85958F8314C08C85833073
S214002C0089F46F81062E000C770B880B990B0E94B7
S214002C10A5C220E030E040EC5FE30E9431C30E9492
S214002C2072C26F838985833039F08985FF24F394D7
S214002C30882319F0F12C01C0F12C11234CF48A855D
S214002C40843008F091C58E85823009F01EC58CC58B
S214002C508E85882341F08D85853008F41EC503C017
S214002C6088858F5F888788858F5F88878C85823088
S214002C7019F488858F5F8887CE010BDC8C858111DF
S214002C805CC18A858730F9F488E08A876E812C815A
S214002C903D81062E000C770B685F7F4F4F2D50EF5F
S214002CA05403C0011124820F931F812CAA24A394DD
S214002CB00F2EF3E0CF2EF02DE12C00E027E047E0CA
S214002CC0089602DF44C08A858830E9F489E08A875E
S214002CD06E812C813D81062E000C770B4F2D50EF18
S214002CE05403C0011124820F931F812CAA24A3949D
S214002CF00F2EF3E0CF2EF02DE12C00E027E047E08A
S214002D000896E2DE24C08A858930E9F48AE08A875C
S214002D106E812C813D81062E000C770B4F2D50EFD7
S214002D205403C0011124820F931F812CAA24A3945C
S214002D300F2EF3E0CF2EF02DE12C00E027E047E049
S214002D400896C2DE04C08A858A3009F41A868A8507
S214002D508B30F9F48CE08A876E812C813D81062EBB
S214002D60000C770B685F7F4F4F2D50EF5403C00168
S214002D701124820F931F812CAA24A3940F2EF3E014
S214002D80CF2EF02DE12C00E027E047E008969CDEF1
S214002D9048C08A858C30F9F48DE08A876E812C8154
S214002DA03D81062E000C770B685F7F4F4F2D50EF4E
S214002DB05403C0011124820F931F812CAA24A394CC
S214002DC00F2EF3E0CF2EF02DE12C00E027E047E0B9
S214002DD008967ADE26C08A858D30F9F48EE08A87DA
S214002DE06E812C813D81062E000C770B685F7F4F2D
S214002DF04F2D50EF5403C0011124820F931F812CD6
S214002E00AA24A3940F2EF3E0CF2EF02DE12C00E0A1
S214002E1027E047E0089658DE04C08A858E3009F41D
S214002E201A868A858F3051F58B85811103C080E123
S214002E308A8707C08F2D8195880F880F880F8C5F33
S214002E408F836E812C813D81062E000C770B685F88
S214002E507F4F4F2D50EF5403C0011124820F931F54
S214002E60812CAA24A3940F2EF3E0CF2EF02DE12C74
S214002E7000E027E047E0089627DE04C08A85803118
S214002E8009F41A8616FFDFC38B858111DCC38A8599
S214002E90843008F0D8C38E85823009F007C4D3C3C7
S214002EA08FE08A8788E08B87F194FF0CFF0CF39401
S214002EB0F394FF82C8C312FF1FC087E08A8782E0B0
S214002EC08E876E812C813D81062E000C770B4F2D50
S214002ED050EF5403C0011124820F931F812CAA24A3
S214002EE0A3940F2EF3E0CF2EF02DE12C00E027E088
S214002EF047E00896E9DDA7C38E85823009F4A3C3B0
S214002F008BE08A876E812C813D81062E000C770B24
S214002F104F2D50EF5403C0011124820F931F812CB4
S214002F20AA24A3940F2EF3E0CF2EF02DE12C00E080
S214002F3027E047E00896C8DD86C38C85813009F017
S214002F4087C08A8581111A8616FF7DC38B858111FD
S214002F507AC38A85843008F4ACC375C314E01A8734
S214002F6088E00E9448A16E812C813D810F2D01953D
S214002F70000F000F0E5F062E000C770B6D5F7F4F65
S214002F804F2D50EF5403C0011124820F931F812C44
S214002F906894AA24A3F86894CC24C1F8E12C27E00E
S214002FA047E0089691DD1B874EC312FF2AC086E0D5
S214002FB08A876E812C813D810F2D0195000F000FB1
S214002FC00E5F062E000C770B6D5F7F4F4F2D50EF78
S214002FD05403C0011124820F931F812C0F2EFAE098
S214002FE0AF2EF02DCC24C3946894EE24E1F827E0AD
S214002FF047E0089669DD88E08B8786E00E9448A156
S21400300022C385E08A876E812C813D810F2D000FBB
S2140030100F0D000F01950D5F062E000C770B695FF4
S2140030207F4F4F2D50EF5403C0011124820F931F82
S214003030812C6894AA24A4F8C12CE12C22E042E05A
S214003040089642DD83E08B8786E00E9448A1FBC29B
S2140030508C85823009F004C28A85813119F482E1B8
S2140030608A873FC08A858231C1F583E18A876E816F
S2140030708C819D816F2C712C062E000C770B685F5F
S2140030807F4F930122953295307F3227207F32275B
S214003090821B930B812CAA24A3946894CC24C2F898
S2140030A0E12C00E024E047E008960EDD6E812C81DE
S2140030B03D81062E000C770B685F7F4F00EEA30164
S2140030C00403C001059F900D1124820F931F00E09A
S2140030D024E047E04096F8DC04C08A85833109F492
S2140030E01A868A85853119F486E18A870CC18A8515
S2140030F0863119F487E18A8706C18A85873119F4F3
S21400310088E18A8700C18A858831C9F589E18A877E
S2140031106E818C819D816F2C712C062E000C770B96
S214003120685F7F4F930122953295307F3227207F4C
S2140031303227821B930B812CAA24A3940F2EF5E032
S214003140CF2EF02DE12C00E024E047E00896BCDC12
S2140031506E812C813D81062E000C770B685F7F4FB9
S21400316000EEA3010403C001059F900D1124820FF9
S214003170931F00E024E047E04096A6DCC4C08A85A2
S2140031808931C9F58AE18A876E818C819D816F2C91
S214003190712C062E000C770B6A5F7F4F93012295E9
S2140031A03295307F3227207F3227821B930B812C6B
S2140031B0AA24A3940F2EF5E0CF2EF02DE12C00E0EC
S2140031C024E047E0089680DC6E812C813D81062E47
S2140031D0000C770B6A5F7F4F00EEA3010403C0016B
S2140031E0059F900D1124820F931F00E024E047E016
S2140031F040966ADC88C08A858A31C9F58BE18A8761
S2140032006E818C819D816F2C712C062E000C770BA5
S2140032106A5F7F4F930122953295307F3227207F59
S2140032203227821B930B812CAA24A3940F2EF5E041
S214003230CF2EF02DE12C00E024E047E0089644DC99
S2140032406E812C813D81062E000C770B6A5F7F4FC6
S21400325000EEA3010403C001059F900D1124820F08
S214003260931F00E024E047E040962EDC4CC08A85A1
S2140032708B31C9F58CE18A876E812C813D816F2C5C
S214003280712C062E000C770B6A5F7F4F00EEA301B1
S2140032900403C001059F900D1124820F931F812CFB
S2140032A0AA24A3940F2EF5E0CF2EF02DE12C00E0FB
S2140032B024E047E0409608DC6E812C813D81062E96
S2140032C0000C770B6A5F7F4F06EDA3010403C00175
S2140032D0059F900D1124820F931F00E024E047E025
S2140032E04596F2DB10C08A858C3119F48DE18A8709
S2140032F00AC08A858D3119F48EE18A8704C08A85D2
S2140033008E3109F41A868A858F3119F480E28A870D
S21400331088C08A85803219F481E28A8782C08A85CD
S214003320813219F482E28A877CC08A85823219F457
S21400333083E28A8776C08A85833219F484E28A8794
S21400334070C08A858432C1F56E818C819D816F2C18
S214003350712C062E000C770B685F7F4F9301229529
S2140033603295307F3227207F3227821B930B812CA9
S214003370AA24A3946894CC24C2F8E12C00E024E0AC
S21400338047E00896A1DB6E812C813D81062E000C5D
S214003390770B685F7F4F00EEA3010403C001059F13
S2140033A0900D1124820F931F00E024E047E0409622
S2140033B08BDB85E28A8735C08A85853241F5898828
S2140033C06E812C813D810F2D0195000F000F000F9F
S2140033D00C5F062E000C770B6A5F7F4F5F2D40EE6A
S2140033E04503C0011124820F931F6894AA24A4F8F1
S2140033F00F2EF6E0CF2EF02D0F2EFAEFEF2EF02D3B
S21400340027E04FE0409660DB86E28A870AC08A851E
S214003410863219F487E28A8704C08A85873209F4DF
S2140034201A8616FF10C18B8581110DC18A858430DE
S21400343008F442C108C18FE18A878AE08B8703C1FE
S21400344012FF05C085E18A878EE08B87FCC08E85DB
S214003450823009F4F8C081E18A8786E08B87F3C062
S2140034608C85833009F0EFC08A858C3251F48B85C9
S214003470873039F424C1198604C013FF02C083E0E4
S21400348089878A85893219F58F2D8195880F880F4F
S214003490880F8C5F8F836E812C813D81062E000CF9
S2140034A0770B6D5F7F4F5F2D40EF4503C001112402
S2140034B0820F931F812CAA24A3946894CC24C3F86B
S2140034C0E12C00E027E047E00896FEDA25C08A8572
S2140034D08C3211F58B859B859F9D801911248F83D7
S2140034E06E812C813D81062E000C770B6D5F7F4F21
S2140034F05F2D40EF4503C0011124820F931F812CDE
S214003500AA24A3940F2EF9E0CF2EF02DE12C00E094
S21400351027E047E00896D8DA8A858A3209F56E8170
S2140035204C815D81062E000C770B645071092F2D9F
S21400353030E088279927821B930B880F991F880FE6
S214003540991F840F951F812CAA24A3940F2EFAE0AE
S214003550CF2EF02DE12C00E023E043E00496B4DA11
S2140035608A85883269F50E94E9C44E812C813D81A6
S21400357066E070E00E9494C30F2EFDEFEF2EF02D54
S214003580E80E0F2D000F0F0D000F01950D5F642F35
S214003590440F770B6D5F7F4F5F2D40EF4503C001F3
S2140035A01124820F931F812C0F2EF3E0AF2EF02DE7
S2140035B00F2EFBE0CF2EF02D23E043E00C9684DAAE
S2140035C016FF41C08B8581113EC08A85843008F481
S2140035D079C039C089E28A876E818C819D815F2D92
S2140035E020EF250330011124062E000C770B6D5FAB
S2140035F07F4F860D971D812CAA24A3946894CC2413
S214003600C3F8E12C00E027E047E008965DDA86E0A4
S2140036108B8788E00E9448A118866E818C819D81E8
S214003620062E000C770B6D5F7F4F860D971D27E0EB
S21400363047E0089649DA07C012FF72C08E858230CE
S21400364009F043C06DC08B8518160CF090C08B85B2
S21400365081508B878B8581118AC01A8688C013FD9E
S214003660A6CABECA19868F8182508F838A85882310
S21400367009F488CA8ACA83E089878F818E5F8F8320
S2140036808A85882309F498CA9ACA82E08E871D869E
S214003690188689E00E9448A167C08D858F5F8D8758
S2140036A088858450888711FDDBCADDCA11FDF8CBFA
S2140036B002CC11FF7ACC52CC11FDBDCEC1CE011189
S2140036C0DACEDBCE11FFB8CF85CF8AE28A8782E0DA
S2140036D08E8788E08B876E814C815D81062E000C7C
S2140036E0770B645071092F2D30E088279927821BAD
S2140036F0930B880F991F880F991F840F951F812C95
S214003700AA24A3940F2EFAE0CF2EF02DE12C00E091
S21400371023E043E00496D8D98CE00E9448A193CFDA
S21400372088E28A876E812C813D81062E000C770BFD
S2140037306B5F7F4F4F2D50EF5403C0011124820F53
S214003740931F812CAA24A3940F2EF7E0CF2EF02DE2
S214003750E12C00E027E047E00896B6D982E08B87A8
S21400376086E00E9448A16FCF81E08F8771CADF9103
S214003770CF911F910F91FF90EF90CF90AF908F90C9
S2140037807F906F9008956F927F929F92AF92BF92B4
S214003790CF92DF92EF92FF920F931F93CF93DF9318
S2140037A0C0E0D0E000E01BE06894DD24D1F8C12C36
S2140037B0A12C912C7E011C9FF0011D9FF00D112461
S2140037C0EC53F14E8285882309F47BC10F5F1C9F62
S2140037D0F0011D9FF00D1124EC53F14E8081918174
S2140037E02681820F911D27FD9A95893F9F4F9CF158
S2140037F01C9FF0011D9FF00D1124EC53F14E8081AB
S21400380091812681820F911D27FD9A958838910512
S21400381014F51C9FF0011D9FF00D1124EC53F14E82
S214003820828193812781820F911D27FD9A95893F7A
S2140038309F4F8CF01C9FF0011D9FF00D1124EC5340
S214003840F14E828193812781820F911D27FD9A95E3
S214003850883491054CF01E9DF0011F9DF00D11243B
S214003860EC53F14E1286EBC01C9FF0011D9FF00D2D
S2140038701124EC53F14E268180819181820F911D97
S21400388027FD9A95918380838085813009F079C0E1
S2140038901C9FF0011D9FF00D1124EC53F14E878103
S2140038A018160CF0CCC01C9FF0011D9FF00D1124C3
S2140038B0EC53F14E8781082E000C990B99231CF4CB
S2140038C0919581959109181619060CF0B8C02C2D03
S2140038D03A2DB92C1E9DF0011F9DF00D1124EC53BE
S2140038E0F14E3F01B2E06B0E711CBF016A5F7F4F65
S2140038F0AF01495F5F4FD3018D919C91280F391F0F
S2140039002033310561F580819181DB012C91820F96
S214003910911D27FD9A9541975CF0808191812C91AD
S214003920820F911D27FD9A958F3691050CF4D3C012
S21400393080819181DB012C91820F911D27FD9A9544
S2140039400896419764F0808191812C91820F911D99
S21400395027FD9A9508968F3691050CF4BCC0B39453
S2140039602B2D30E0DA018C91082E000C990B992350
S2140039701CF4919581959109281739070CF4BBCF53
S2140039805EC01C9FF0011D9FF00D1124EC53F14EFC
S2140039908085863009F043C01C9FF0011D9FF00D06
S2140039A01124EC53F14E268180819181820F911D66
S2140039B027FD9A95918380838681082E000C990BAB
S2140039C099231CF49195819591090297A4F01E9D68
S2140039D0F0011F9DF00D1124EC53F14E86818823D3
S2140039E00CF48F5F85951E9DF0011F9DF00D112430
S2140039F0EC53F14E86831E9DF0011F9DF00D1124A1
S214003A00EC53F14E278182819381820F911D27FD11
S214003A109A959383828387818E5F878310C01C9FCD
S214003A20F0011D9FF00D1124EC53F14E2781828189
S214003A309381820F911D27FD9A95938382831E9D05
S214003A40F0011F9DF00D1124EC53F14E8081918101
S214003A502681820F911D27FD9A95893F9F4F8CF0F6
S214003A601E9DF0011F9DF00D1124EC53F14E808138
S214003A7091812681820F911D27FD9A9588389105A0
S214003A804CF01E9DF0011F9DF00D1124EC53F14EDD
S214003A90128617C01E9DF0011F9DF00D1124EC53D9
S214003AA0F14E828581508287828581110AC01E9DD3
S214003AB0F0011F9DF00D1124EC53F14E80858130EE
S214003AC0A1F02196C431D10509F074CE0431D9F4A1
S214003AD00E944A1518C01E9DF0011F9DF00D11246E
S214003AE0EC53F14EB7821682AACF88E00E9448A116
S214003AF01E9DF0011F9DF00D1124EC53F14ED08653
S214003B0088E08287DECFDF91CF911F910F91FF90E3
S214003B10EF90DF90CF90BF90AF909F907F906F9088
S214003B200895CF92DF92EF92FF920F931F93CF9359
S214003B30DF93C0E0D0E01BE00F2EF0E6FF2EF02D66
S214003B400F2EF8E6EF2EF02DCE011C9FF0011D9FE4
S214003B50F00D1124EC53F14E2285222309F484C182
S214003B601C9FF0011D9FF00D1124EC53F14E208593
S214003B70211135C01C9FF0011D9FF00D1124EC5340
S214003B80F14E20813181121613060CF06DC11C9F78
S214003B90F0011D9FF00D1124EC53F14E2081318170
S214003BA02F3731050CF060C11C9FF0011D9FF00DF2
S214003BB01124EC53F14E22813381121613060CF0B9
S214003BC053C11C9FF0011D9FF00D1124EC53F14EC4
S214003BD0228133812F3331050CF44CC145C11C9F23
S214003BE0F0011D9FF00D1124EC53F14E208521307D
S214003BF0A1F51C9FF0011D9FF00D1124EC53F14E12
S214003C0020813181283031050CF46FC11C9FF001F2
S214003C101D9FF00D1124EC53F14E20813181203888
S214003C2031050CF062C11C9FF0011D9FF00D1124A0
S214003C30EC53F14E2281338133230CF456C11C9F82
S214003C40F0011D9FF00D1124EC53F14E22813381BB
S214003C50203431050CF438C148C11C9FF0011D9F6B
S214003C60F00D1124EC53F14E20852230A1F51C9F57
S214003C70F0011D9FF00D1124EC53F14E208131818F
S214003C80283031050CF454C11C9FF0011D9FF00D27
S214003C901124EC53F14E20813181203831050CF08F
S214003CA047C11C9FF0011D9FF00D1124EC53F14EEF
S214003CB02281338133230CF43BC11C9FF0011D9FEE
S214003CC0F00D1124EC53F14E22813381203431055E
S214003CD00CF41BC12DC11C9FF0011D9FF00D11247B
S214003CE0EC53F14E20852B3009F076C01C9FF00176
S214003CF01D9FF00D1124EC53F14E208131812830A8
S214003D0031050CF433C11C9FF0011D9FF00D1124EA
S214003D10EC53F14E20813181203831050CF026C15C
S214003D201C9FF0011D9FF00D1124EC53F14E2281D3
S214003D30338133230CF41AC11C9FF0011D9FF00D34
S214003D401124EC53F14E22813381203431050CF4DA
S214003D5001C10CC1189FF001199FF00D1124EC53FE
S214003D60F14E628173818081918100E022E04EEE07
S214003D700E94824979C0189FF001199FF00D112406
S214003D80EC53F14E628173818081918101E022E0E3
S214003D904EEE0E94824968C0189FF001199FF00DF0
S214003DA01124EC53F14E6281738100E022E04EEE66
S214003DB080E00E94824958C0189FF001199FF00DBC
S214003DC01124EC53F14E6281738101E022E04EEE45
S214003DD080E00E94824948C01C9FF0011D9FF00DA4
S214003DE01124EC53F14E20852630F1F51C9FF0018E
S214003DF01D9FF00D1124EC53F14E26812223B4F0C2
S214003E006F01628173818081918100E022E04FEA38
S214003E100E948249F6014185628173818081918189
S214003E20415422E0885F0E9482491EC01C9F900178
S214003E301D9F300D1124C9018C53914E6C01FC015D
S214003E40628173818081918101E022E04FEA885F80
S214003E500E948249F6014185628173818081918149
S214003E60415422E00E9482492196C431D10509F0CE
S214003E706BCE88C01C9F90011D9F300D1124C90178
S214003E808C53914E6C01FC0162817381808191811B
S214003E9081500E944D40F60162817381808191813C
S214003EA08F5F0E944D40F60162817381808191810F
S214003EB06F5F0E944D40F60162817381808191811F
S214003EC061500E944D40D0CF1C9FF0011D9FF00D09
S214003ED01124EC53F14E628173818081918100E060
S214003EE022E04DE60E948249BFCF189FF001199F3D
S214003EF0F00D1124EC53F14E6281738100E022E054
S214003F004DE680E00E948249AFCF1C9FF0011D9FC6
S214003F10F00D1124EC53F14E22856281738180816D
S214003F2091814E2D421B00E022E00E9482499CCFE8
S214003F30189FF001199FF00D1124EC53F14E828565
S214003F40628173814F2D481B00E022E080E00E94D2
S214003F5082498ACF1C9FF0011D9FF00D1124EC535F
S214003F60F14E268122230CF0F5CE05CF189FF001E6
S214003F70199FF00D1124EC53F14E268122230CF0EC
S214003F800BCF1ACFDF91CF911F910F91FF90EF903B
S214003F90DF90CF900895CF93DF93813009F0A2C0D1
S214003FA080919F1E882309F48FC08091B61E909141
S214003FB0B71E2091A41E3091A51E0996821793075E
S214003FC074F08091B61E9091B71E2091A41E309179
S214003FD0A51E09972817390724F4D8E003C0D1E0B6
S214003FE001C0D0E08091B61E9091B71E2091A41E0D
S214003FF03091A51E07978217930764F42091A41E9C
S2140040003091A51E8091B61E9091B71E28173907CD
S2140040100CF478C38091B61E9091B71E2091A41E12
S2140040203091A51E0796821793070CF065C3209162
S214004030A41E3091A51E8091B61E9091B71E0F96B5
S214004040281739070CF45EC357C38091AC1E811144
S2140040500BC00E94E9C464E170E00E9494C3892BFF
S21400406019F4CD2FC4642AC08091AC1E813031F57E
S2140040700E94E9C487709927892B01F5CD2FC26469
S2140040801DC00E94E9C463E070E00E9494C3892BBF
S21400409019F4CD2FC06412C08091AC1E81110BC0E4
S2140040A00E94E9C46FE070E00E9494C3892B29F453
S2140040B0CD2FC26403C0CD2F01C0CD2F80919F1E8F
S2140040C0815080939F1E45C40E94E9C464E170E05D
S2140040D00E9494C3892B09F009C384E180939F1E34
S2140040E0C0E037C4823009F011C180919F1E88233A
S2140040F009F4FEC08091B61E9091B71E2091A41EB2
S2140041003091A51E0996821793070CF012C3809172
S214004110A41E9091A51E41970CF019C30AC3809166
S214004120B61E9091B71E2091A41E3091A51E8096B3
S214004130821793070CF443C08091B61E9091B71E69
S2140041402091A41E3091A51E809682179307CCF16D
S214004150D8E03CC08091A41E9091A51E8E36910595
S2140041600CF409C3FBC28091B61E9091B71E209135
S214004170A41E3091A51E48972817390724F1809170
S214004180B61E9091B71E2091A41E3091A51E48978A
S214004190D1E028173907D4F4D0E018C08091A41EC7
S2140041A09091A51E41978CF4EDC28091A41E90912B
S2140041B0A51ED1E08E3691054CF0D0E007C0D1E0C8
S2140041C005C0D0E003C0D8E001C0D8E08091B61E9C
S2140041D09091B71E2091A41E3091A51E08978217B5
S2140041E0930764F42091A41E3091A51E8091B61EFC
S2140041F09091B71E281739070CF4D2C28091B61ECC
S2140042009091B71E2091A41E3091A51E0796821786
S21400421093070CF0DCC22091A41E3091A51E80915D
S214004220B61E9091B71E4096281739070CF4B8C2F0
S214004230CEC28091AC1E882321F08091AC1E8230C5
S21400424019F4CD2FC4644EC08091AC1E833029F083
S2140042508091AC1E813009F045C0CD2FC26442C0AB
S2140042600E94E9C463E070E00E9494C3892B51F574
S214004270CD2FC0648091B61E9091B71E2091A41ECB
S2140042803091A51E821B930B9C0122F42227332714
S214004290281B390B2B3031052CF18091B61E9091DE
S2140042A0B71E2091A41E3091A51E821B930B9C0165
S2140042B022F422273327281B390B283231050CF429
S2140042C08CC210C08091AC1E811109C00E94E9C446
S2140042D087709927892B29F4CD2FC26403C0CD2F70
S2140042E001C0CD2F80919F1E815080939F1E31C3A9
S2140042F00E94E9C465E070E00E9494C3892B09F02F
S214004300F7C18EE180939F1EC0E023C3833009F07F
S2140043101EC18091B61E9091B71E2091A41E3091AA
S214004320A51E0996821793070CF05AC28091A41E08
S2140043309091A51E41970CF453C28091A41E9091B3
S214004340A51E8E3691050CF459C24AC28091B61E3F
S2140043509091B71E2091A41E3091A51E80968217BC
S21400436093070CF45BC08091B61E9091B71E209107
S214004370A41E3091A51E8096821793070CF450C099
S214004380D8E053C08091A41E9091A51E41970CF4CE
S2140043903CC28091A41E9091A51E8E3691050CF409
S2140043A041C233C28091B61E9091B71E2091A41EC2
S2140043B03091A51E489728173907A4F18091B61E9C
S2140043C09091B71E2091A41E3091A51E4897D1E06B
S2140043D02817390754F5D0E028C08091A41E909184
S2140043E0A51E41970CF425C28091A41E9091A51E8F
S2140043F08E369105CCF01DC28091A41E9091A51E0C
S214004400419754F08091A41E9091A51ED1E08E365F
S21400441091055CF0D0E009C0D0E007C0D1E005C04F
S214004420D0E003C0D8E001C0D8E08091B61E9091DD
S214004430B71E2091A41E3091A51E089782179307D9
S21400444064F42091A41E3091A51E8091B61E909112
S214004450B71E281739070CF4FAC18091B61E909142
S214004460B71E2091A41E3091A51E079682179307AB
S2140044700CF004C22091A41E3091A51E8091B61E99
S2140044809091B71E4096281739070CF4E0C1F6C184
S2140044908091AC1E882321F08091AC1E823019F4E6
S2140044A0CD2FC4644EC08091AC1E833029F080911D
S2140044B0AC1E813009F045C0CD2FC26442C00E94B8
S2140044C0E9C463E070E00E9494C3892B51F5CD2FB8
S2140044D0C0648091B61E9091B71E2091A41E3091A4
S2140044E0A51E821B930B9C0122F422273327281B30
S2140044F0390B2B3031052CF18091B61E9091B71EEA
S2140045002091A41E3091A51E821B930B9C0122F4C1
S21400451022273327281B390B283231050CF4B4C167
S21400452010C08091AC1E811109C00E94E9C487703A
S2140045309927892B29F4CD2FC26403C0CD2F01C043
S214004540CD2F80919F1E815080939F1E02C2843083
S21400455009F0D0C08091B61E9091B71E2091A41E7F
S2140045603091A51E0996821793070CF090C1809192
S214004570A41E9091A51E41970CF489C18091A41E9B
S2140045809091A51E8E3691058CF181C18091A41E56
S2140045909091A51E41970CF487C18091A41E90911E
S2140045A0A51E8E36910524F17FC18091A41E9091A0
S2140045B0A51E41970CF484C18091A41E9091A51E5F
S2140045C08E369105BCF07CC18091A41E9091A51EEC
S2140045D0419754F08091A41E9091A51EC1E08E369E
S2140045E091054CF0C0E007C0C0E005C0C1E003C0C4
S2140045F0C8E001C0C8E08091A41E9091A51E409717
S2140046004CF08091A41E9091A51E853691051CF055
S214004610C1E001C0C8E08091B61E9091B71E2091FF
S214004620A41E3091A51E821B930B9C0122F4222708
S2140046303327281B390B213131050CF44FC18091EB
S214004640B61E9091B71E2091A41E3091A51E821B07
S214004650930B9C0122F422273327281B390B293180
S21400466031050CF447C13AC18091A41E9091A51E55
S214004670489741970CF04BC14CC18091A41E909175
S214004680A51E48968E3691050CF450C162C19091D5
S214004690B81E8091A61E98170CF44AC14BC12091F3
S2140046A0A41E3091A51E8091B61E9091B71E2817A5
S2140046B039070CF44DC18091B61E9091B71E20911B
S2140046C0A41E3091A51E0796821793070CF041C1D1
S2140046D02091A41E3091A51E8091B61E9091B71E03
S2140046E04096281739070CF433C133C1C0E031C1F6
S2140046F0C0E02FC1C0E02DC18091AC1E813009F012
S214004700CBCCBFCCCD2FC0648091B61E9091B71E87
S2140047102091A41E3091A51E821B930B9C0122F4AF
S21400472022273327281B390B2B3031050CF48DCC70
S214004730C5CC8091B61E9091B71E2091A41E3091D4
S214004740A51E0997281739070CF404CD07C08091D9
S214004750AC1E813009F4E3CCD1E038CD2091B61EF2
S2140047603091B71E8091A41E9091A51E82179307C4
S2140047700CF414CD07C08091AC1E813009F4F3CC44
S214004780D8E024CD2091B61E3091B71E8091A41E8D
S2140047909091A51E281739070CF407CDD0E016CD4A
S2140047A0CD2FC0648091B61E9091B71E2091A41E96
S2140047B03091A51E821B930B9C0122F422273327DF
S2140047C0281B390B2B3031050CF433CD8BCD809163
S2140047D0AC1E813009F076CD43CDCD2FC46482CD9A
S2140047E08091B61E9091B71E2091A41E3091A51EF2
S2140047F00997281739070CF4C5CD07C08091AC1E61
S214004800813009F4A3CDD1E010CE2091B61E3091B0
S214004810B71E8091A41E9091A51E821793070CF4D4
S214004820DCCD07C08091AC1E813009F4BBCDD8E04A
S214004830FCCD2091B61E3091B71E8091A41E90919B
S214004840A51E281739070CF4D7CDD0E0EECDCD2F16
S214004850C0648091B61E9091B71E2091A41E309120
S214004860A51E821B930B9C0122F422273327281BAC
S214004870390B2B3031050CF40BCE63CE8091AC1E79
S214004880813009F04ECE1BCECD2FC4645ACE809117
S214004890B61E9091B71E2091A41E3091A51E0997B2
S2140048A0281739070CF472CE2091B61E3091B71E29
S2140048B08091A41E9091A51E821793070CF475CEC6
S2140048C02091B61E3091B71E8091A41E9091A51E11
S2140048D0281739070CF478CEC0E08DCE2091B61E8E
S2140048E03091B71E8091A41E9091A51E28173907F7
S2140048F009F5CDCE2091B61E3091B71E8091A41E2C
S2140049009091A51E281739070CF4AECE02C0C364DA
S21400491020C02091B61E3091B71E8091A41E9091A3
S214004920A51E281739070CF0A8CE13C0CA6411C0FC
S214004930C0640FC08091B61E9091B71E2091A41E31
S2140049403091A51E0897821793070CF4A8CEB3CE15
S214004950C0648C2FDF91CF9108952F923F924F9293
S2140049605F926F927F928F929F92AF92BF92CF92FA
S214004970DF92EF92FF920F931F93CF93DF930E94E5
S21400498034420E944A154CE954E160E080E00E94FF
S2140049906E440E94BD412FEF83ED90E3215080408E
S2140049A09040E1F700C0000010929E1E10929D1EDF
S2140049B010929C1E80913101853009F011C10E9431
S2140049C0344249EA54E160E082E10E946E444CEAD7
S2140049D054E160E082E50E946E444FEA54E160E1F3
S2140049E086E00E946E444FEA54E160E186E40E944D
S2140049F06E444BEC54E168E380E00E946E44809184
S214004A009E1E8A3058F460919E1E660F660F660FD3
S214004A10605F4EE786E00E94F3420AC060919E1EE9
S214004A20660F660F660F60544AE286E00E94F34205
S214004A3080919D1E8A3058F460919D1E660F660F09
S214004A40660F605F4EE786E40E94F3420AC06091FC
S214004A509D1E660F660F660F60544AE286E40E944B
S214004A60F3420E94E53E823009F023C380919E1EE9
S214004A70882309F41EC380919E1E8A3008F410C352
S214004A8018C380919E1E833008F418C320C38091FB
S214004A909E1E843008F421C30E94E53E8430B9F49B
S214004AA00E94E9C481709078992324F401978E6F50
S214004AB09F6F019680939D1E81E00E9448A1809181
S214004AC09D1E865F80939D1E81E080939C1E0E94A3
S214004AD0283F823009F013C380919D1E882309F475
S214004AE00EC380919D1E8A3008F400C308C38091CF
S214004AF09D1E833008F408C310C380919D1E843029
S214004B0008F411C320919E1E80919D1E90E0820F96
S214004B10911D44970CF488C060919E1E6A5000E078
S214004B202CE330E043E082EB9EE10E94A50D60910D
S214004B309D1E6A5000E92CE330E040E080EA9EE1EA
S214004B400E94A50DEFE7F9EA23E0E150F04020408F
S214004B50E1F700C0000080919C1E813099F40E940D
S214004B6034424EED54E16EE188E20E946E440E94AB
S214004B70BD418FEF9DE3E9E481509040E040E1F7CE
S214004B8000C000000E94344246EE54E16EE188E226
S214004B900E946E440E94BD4164E087E40E9484A1A6
S214004BA0FFEF29E688E1F15020408040E1F700C0A1
S214004BB000000E9434424FEE54E16EE184E30E940E
S214004BC06E440E94BD4164E083E20E9484A19FEF90
S214004BD0E4E3FCE09150E040F040E1F700C0000064
S214004BE00F2EF2EBEF2EFEE1FF2EF02D0F2EF0EA49
S214004BF0CF2EFEE1DF2EF02D0F2EF4E68F2E912C19
S214004C00F02D0F2EFAE0AF2EB12CF02D3E2C4F2CAF
S214004C105C2C1D2D0F2EF4E12F2EF02D0F2EFCE315
S214004C206F2E712CF02D36C280914F2685FD0E9486
S214004C305B3F0E94BD412FEF80E792E0215080400D
S214004C409040E1F700C0000080913101853009F402
S214004C50B6CEC6CF0E943442832D942D0E940813F0
S214004C60852D912F0E9408130E94C31B60914F262A
S214004C70832D942D0E94AC1580919C1E882349F0AC
S214004C8080919C1E88D9682F852D912F0E94AC1587
S214004C9006C060914C26852D912F0E94AC15809100
S214004CA04F2685FD0E945B3FF7019681F6018681BF
S214004CB0981320C0F70124813581F60184819581FF
S214004CC0281739070CF041C224813581F701848109
S214004CD095810896281739070CF42EC236C2F701BC
S214004CE024813581F6018481958108962817390735
S214004CF00CF436C2832D942D0E94CA0D852D912F5B
S214004D000E94CA0D0E94911D0E943D1543E15DE17F
S214004D1060E080E00E946E44F70180819181B401DA
S214004D200E9494C3CB01B5010E9494C340E3480F90
S214004D3060E080E00E94F342F70180819181B50136
S214004D400E9494C3CB01B5010E9494C340E3480F70
S214004D5060E086E00E94F342F70180819181B50110
S214004D600E9494C340E3480F60E08CE00E94F34248
S214004D7043E15DE160E08FE60E946E44F6018081CB
S214004D809181B4010E9494C3CB01B5010E9494C3E3
S214004D9040E3480F60E08FE60E94F342F601808110
S214004DA09181B5010E9494C3CB01B5010E9494C3C2
S214004DB040E3480F60E085E70E94F342F6018081F9
S214004DC09181B5010E9494C340E3480F60E08BE7F1
S214004DD00E94F342F7018381882379F0D6E3C0E08E
S214004DE000E022E04AE660E08D2F0E948249CF5F15
S214004DF0F7018381D850C81798F3F601838188237A
S214004E0079F0D2E4C0E000E022E04AE660E08D2FD0
S214004E100E948249CF5FF6018381D85FC81798F356
S214004E20F7018281813089F480919C1E882339F0B5
S214004E3043EF54E160E080E00E946E4406C04CEF11
S214004E4054E160E080E00E946E44F6018281813089
S214004E5089F480919C1E882339F044E055E160E097
S214004E6086E50E946E4406C04CE055E160E086E5AB
S214004E700E946E44F7018281823009F07AC1F60101
S214004E808281823009F075C17AC180919C1E882388
S214004E9039F044E155E16EE28DE10E946E441CC09B
S214004EA04DE155E16EE28DE10E946E4415C0F601BB
S214004EB08281823089F480919C1E882339F044E2F6
S214004EC055E16EE28DE10E946E4406C04CE255E16B
S214004ED06EE28DE10E946E440E94BD41F701828120
S214004EE0813021F0F6018281813099F4F7018281C8
S214004EF0813009F41282F6018281813009F412822F
S214004F00FFEF29E688E1F15020408040E1F700C03D
S214004F100000F7018281823029F0F601828182301A
S214004F2009F0B8C0FFEF21E18AE7F1502040804049
S214004F30E1F700C0000080919C1E882309F431C16F
S214004F40F6018281823009F02CC120C12092310105
S214004F508AC00E944A150E94344280919C1E82306C
S214004F60C1F40E94E9C481709078992324F40197D3
S214004F708E6F9F6F019600E9930140E0682FC6018F
S214004F800E94A50D43E355E16EE188E20E946E445F
S214004F902DC080919C1E8330C1F40E94E9C48370AA
S214004FA09078992324F401978C6F9F6F019600E9FF
S214004FB0930140E0682FC6010E94A50D4DE355E120
S214004FC06EE188E20E946E4411C080919C1E84307F
S214004FD069F400E9930140E063E0C6010E94A50D74
S214004FE045E455E16EE1822D0E946E44F70175821C
S214004FF0648216820E94BD41FFEF2DE389E4F150E2
S21400500020408040E1F700C000000E94344246EE97
S21400501054E16EE188E20E946E440E94BD4164E065
S21400502087E40E9484A19FEFE9E6F8E19150E04012
S214005030F040E1F700C000000E9434424FEE54E119
S2140050406EE184E30E946E440E94BD4164E083E208
S2140050500E9484A12FEF84E39CE021508040904082
S214005060E1F700C00000F70111821082F6011182FC
S2140050701082F7011282F601128283E0F701838321
S214005080F6018383F7011782F6011782F70110866F
S214005090F601108680913101853009F4DBCD86C09B
S2140050A080E00E9448A180919E1E815080939E1EA3
S2140050B0F3CC0E94E53E813051F4E3CC80E00E94C0
S2140050C048A180919E1E8F5F80939E1EE5CC0E9415
S2140050D0E53E873009F0E0CCDACC81E00E9448A1BA
S2140050E080919E1E865F80939E1ED6CC80E00E9496
S2140050F048A180919D1E815080939D1E03CD0E94E5
S214005100283F813051F4F3CC80E00E9448A1809182
S2140051109D1E8F5F80939D1EF5CC0E94283F873092
S21400512009F0F0CCEACC81E00E9448A180919D1E57
S214005130865F80939D1EE6CCF7018781815087832A
S214005140F60187818F5F8783D5CDF601248135816F
S214005150F70184819581281739070CF4C0CDCACD94
S214005160F70187818F5F8783F60187818150878368
S214005170C1CDF7018281823009F099CE86CE44E512
S21400518055E160E084E30E946E44A6CE80919C1EAA
S2140051908F5F80939C1E80919C1E853008F0D6CE33
S2140051A0D8CE2092310110929C1E5DCFDF91CF9118
S2140051B01F910F91FF90EF90DF90CF90BF90AF9030
S2140051C09F908F907F906F905F904F903F902F9022
S2140051D0089582EB9EE10E94980D80EA9EE10C9471
S2140051E0980D0895CF92DF92EF92FF920F931F9340
S2140051F0CF93DF930F2EF0E3EF2EF1E2FF2EF02D8C
S214005200C0E4D1E200E010E00F2EF4E6CF2ED12C61
S214005210F02DF70111830083FE013E97802F880F43
S2140052208871808331961082319610823196108272
S2140052303196108231961082329610823197108203
S214005240329610823196108231961082F7011686B9
S21400525015860E94E9C4FE013197B6010E9494C3E8
S214005260808318820C5F1F4FF1E1EF0EF11C6196F0
S2140052700034110571F6DF91CF911F910F91FF90C9
S214005280EF90DF90CF9008952F923F924F925F92CB
S2140052906F927F928F929F92AF92BF92CF92DF9241
S2140052A0EF92FF920F931F93CF93DF93CDB7DEB7A6
S2140052B0E3970FB6F894DEBF0FBECDBF84E1EFE2F2
S2140052C0F4E1DE01119601900D928A95E1F788E0EF
S2140052D0E3E4F4E1DE015F9601900D928A95E1F732
S2140052E08AE0EBE4F4E1DE01559601900D928A9592
S2140052F0E1F70F2EFAE32F2EF1E23F2EF02D00E31A
S21400530011E28CE391E299A788A70F2EF4E3EF2E23
S214005310F1E2FF2EF02D0F2EF8E36F2EF1E27F2E36
S214005320F02D0F2EFBE3AF2EF1E2BF2EF02D0F2E49
S214005330F5E34F2EF1E25F2EF02D0F2EF7E3CF2E82
S214005340F1E2DF2EF02DA3E3B1E2BDA7ACA7E6E3C2
S214005350F1E2FBA7EAA70F2EF2E38F2EF1E29F2ED3
S214005360F02D1FA2C40145015C01F101808182304D
S21400537081F49501D5018C91181614F482508C9303
S214005380D9018C91877009F4108221E0D4012C9306
S21400539011C0813079F49501D5018C91883114F4CF
S2140053A08E5F8C93D9018C91877009F4108223E06C
S2140053B0D4012C935FA64EA6D2019C919E3138F064
S2140053C0D6018C91811103C0E2E0EC9315C0D601A2
S2140053D08C91813079F4F3011082AAA5BBA58C913B
S2140053E081508C93811102C0F6011082E2E0D40154
S2140053F0EC9367C0823079F4D3011C92911103C0FC
S214005400F60110825EC09150AEA5BFA59C9322E027
S214005410F401208356C08430E9F4D70119968D91A3
S2140054209C911A9701961A969C938E931997EFE182
S214005430F0E0EC0FFD1FE80FF91F2081ECA5FDA59D
S21400544020830797F1F51A961C921E921997D6019B
S2140054501C9237C08330C1F4F7018185928501968E
S21400546092878187E5E1F0E0EC0FFD1FE80FF91F5A
S2140054702081ACA5BDA52C93099719F5F7011286D6
S2140054801186D6011C921DC08A30B1F423E1F701C3
S2140054902083AEA5BFA51C92EAA5FBA580818150FE
S2140054A08083EAE0D401EC9381110BC0D6011C92F4
S2140054B0F4013297108205C08081811102C0F40188
S2140054C01082D3018C91863009F046C0BFA1B1117D
S2140054D004C061E087E70E9484A1FBAAEAAAF7015C
S2140054E080818F5F8083AEA5BFA59C919F5F9C93B4
S2140054F0833110F0B3E1B083F80160817181072E2B
S214005500000C880B990B0E94A5C26EA77FA788ABDC
S21400551099ABAAA9BBA98C91E1E0F0E0EC0FFD1FC6
S214005520E80FF11D608170E080E090E00E94A5C267
S21400553020E030E040EC5FE30E9431C39B01AC0109
S2140055406EA57FA588A999A90E94A6C10E9472C2CD
S214005550F8017183608331C08730D1F4F701808110
S2140055608F5F833110F4808302C023E12083808123
S214005570E1E0F0E0EC0FFD1FE80FF11D2081D801FF
S2140055808D919C911197820F911D8D939C9315C0C0
S214005590F7018081882311F0815080838081E1E0CB
S2140055A0F0E0EC0FFD1FE80FF11D2081F80180816F
S2140055B09181820F911D91838083F8018081918172
S2140055C0811528E092076CF0977899231CF40197D0
S2140055D0986F019691838083A8A5B9A58C918F5F5B
S2140055E08C93BFA1BF5FBFA3E1E12E0E311C0F5EFF
S2140055F01F4F88A599A5419699A788A791E1E90E1E
S214005600F11CA1E16A0E711CB1E18B0E911CE1E167
S2140056104E0E511CF1E1CF0ED11C8CA59DA54196D6
S2140056209DA78CA7AAA5BBA55196BBA7AAA7B1E123
S214005630AB0EB11CEFA1E03109F097CEE3960FB6A2
S214005640F894DEBF0FBECDBFDF91CF911F910F91B3
S214005650FF90EF90DF90CF90BF90AF909F908F908D
S2140056607F906F905F904F903F902F9008954F924D
S2140056705F926F927F928F929F92AF92BF92CF92DD
S214005680DF92EF92FF920F931F93CF93DF93809159
S2140056903101863009F0D8C180913B2181110DC0BF
S2140056A0E0E3F1E26281655E8381681B00E020E052
S2140056B04CE080E00E948249B5C5813069F4E0E3A1
S2140056C0F1E26281655E8381681B00E020E04DE0C8
S2140056D080E00E948249A6C5833069F4E0E3F1E2E7
S2140056E06281655E8381681B01E020E04DE080E01A
S2140056F00E94824997C5823069F4E0E3F1E2628154
S214005700655E8381681B00E020E04EE080E00E943A
S214005710824988C5843069F4E0E3F1E26281655E1F
S2140057208381681B01E020E04EE080E00E94824911
S21400573079C58A3009F076C5E0E3F1E26281655EFC
S2140057408381681B00E020E04CE680E00E948249EE
S21400575069C5AE01FE01339780819181D501ED9137
S214005760FC918E179F070CF45DC09F0120583F4F99
S214005770281739070CF456C0D6012C9121110BC0FE
S214005780D7016C91655E9881691B00E04CE08E1B2A
S2140057900E948249AAC0213061F4D7016C91655EEF
S2140057A09881691B00E020E04DE08E1B0E94824934
S2140057B09CC0233061F4D7016C91655E9881691BAB
S2140057C001E020E04DE08E1B0E9482498EC0223010
S2140057D061F4D7016C91655E9881691B00E020E05A
S2140057E04EE08E1B0E94824980C0243061F4D701AF
S2140057F06C91655E9881691B01E020E04EE08E1B8F
S2140058000E94824972C02A3009F06FC0D7016C919D
S214005810655E9881691B00E020E04CE68E1B0E94C6
S214005820824963C0E038B7E0FB070CF45EC08038FE
S21400583091050CF05AC0D6012C9121110CC0D7014D
S2140058406C91655EDA019C91691B00E04CE08E1B52
S2140058500E9482494AC0213069F4D7016C91655E86
S214005860DA019C91691B00E020E04DE08E1B0E944F
S21400587082493BC0233069F4D7016C91655EDA013A
S2140058809C91691B01E020E04DE08E1B0E9482493E
S2140058902CC0223069F4D7016C91655EDA019C91C8
S2140058A0691B00E020E04EE08E1B0E9482491DC06E
S2140058B0243069F4D7016C91655EDA019C91691B0E
S2140058C001E020E04EE08E1B0E9482490EC02A3086
